{
	"bankLockTest.sol": {
		"TimeLockBox": {
			"abi": [
				{
					"inputs": [],
					"stateMutability": "nonpayable",
					"type": "constructor"
				},
				{
					"anonymous": false,
					"inputs": [
						{
							"indexed": false,
							"internalType": "address",
							"name": "token",
							"type": "address"
						}
					],
					"name": "AddToken",
					"type": "event"
				},
				{
					"anonymous": false,
					"inputs": [
						{
							"indexed": false,
							"internalType": "address",
							"name": "receiptKey",
							"type": "address"
						},
						{
							"indexed": false,
							"internalType": "address",
							"name": "customer",
							"type": "address"
						},
						{
							"indexed": false,
							"internalType": "address",
							"name": "token",
							"type": "address"
						},
						{
							"indexed": false,
							"internalType": "uint256",
							"name": "amount",
							"type": "uint256"
						},
						{
							"indexed": false,
							"internalType": "uint256",
							"name": "lockDays",
							"type": "uint256"
						},
						{
							"indexed": false,
							"internalType": "uint256",
							"name": "unlockTime",
							"type": "uint256"
						}
					],
					"name": "Deposit",
					"type": "event"
				},
				{
					"anonymous": false,
					"inputs": [
						{
							"indexed": false,
							"internalType": "address",
							"name": "customer",
							"type": "address"
						},
						{
							"indexed": false,
							"internalType": "address",
							"name": "token",
							"type": "address"
						},
						{
							"indexed": false,
							"internalType": "uint256",
							"name": "amount",
							"type": "uint256"
						},
						{
							"indexed": false,
							"internalType": "uint256",
							"name": "unlockTime",
							"type": "uint256"
						}
					],
					"name": "Read",
					"type": "event"
				},
				{
					"anonymous": false,
					"inputs": [
						{
							"indexed": false,
							"internalType": "address",
							"name": "receiptKey",
							"type": "address"
						},
						{
							"indexed": false,
							"internalType": "address",
							"name": "customer",
							"type": "address"
						},
						{
							"indexed": false,
							"internalType": "address",
							"name": "token",
							"type": "address"
						},
						{
							"indexed": false,
							"internalType": "uint256",
							"name": "amount",
							"type": "uint256"
						},
						{
							"indexed": false,
							"internalType": "uint256",
							"name": "time",
							"type": "uint256"
						}
					],
					"name": "Withdraw",
					"type": "event"
				},
				{
					"inputs": [
						{
							"internalType": "address",
							"name": "_token",
							"type": "address"
						}
					],
					"name": "addToken",
					"outputs": [],
					"stateMutability": "nonpayable",
					"type": "function"
				},
				{
					"inputs": [],
					"name": "counter",
					"outputs": [
						{
							"internalType": "uint128",
							"name": "",
							"type": "uint128"
						}
					],
					"stateMutability": "view",
					"type": "function"
				},
				{
					"inputs": [
						{
							"internalType": "address",
							"name": "_token",
							"type": "address"
						},
						{
							"internalType": "uint256",
							"name": "_amount",
							"type": "uint256"
						},
						{
							"internalType": "uint256",
							"name": "_lockDays",
							"type": "uint256"
						}
					],
					"name": "depositErc20Token",
					"outputs": [],
					"stateMutability": "nonpayable",
					"type": "function"
				},
				{
					"inputs": [
						{
							"internalType": "uint256",
							"name": "_lockDays",
							"type": "uint256"
						}
					],
					"name": "depositEther",
					"outputs": [],
					"stateMutability": "payable",
					"type": "function"
				},
				{
					"inputs": [
						{
							"internalType": "address",
							"name": "_receiptKey",
							"type": "address"
						}
					],
					"name": "getReceipt",
					"outputs": [],
					"stateMutability": "nonpayable",
					"type": "function"
				},
				{
					"inputs": [],
					"name": "owner",
					"outputs": [
						{
							"internalType": "address",
							"name": "",
							"type": "address"
						}
					],
					"stateMutability": "view",
					"type": "function"
				},
				{
					"inputs": [
						{
							"internalType": "address",
							"name": "_receiptKey",
							"type": "address"
						}
					],
					"name": "withdraw",
					"outputs": [],
					"stateMutability": "nonpayable",
					"type": "function"
				}
			],
			"devdoc": {
				"kind": "dev",
				"methods": {},
				"version": 1
			},
			"evm": {
				"assembly": "    /* \"bankLockTest.sol\":175:5654  contract TimeLockBox {... */\n  mstore(0x40, 0x80)\n    /* \"bankLockTest.sol\":1137:1207  constructor() {... */\n  callvalue\n  dup1\n  iszero\n  tag_1\n  jumpi\n  0x00\n  dup1\n  revert\ntag_1:\n  pop\n    /* \"bankLockTest.sol\":1161:1166  owner */\n  0x00\n    /* \"bankLockTest.sol\":1161:1179  owner = msg.sender */\n  dup1\n  sload\n  not(sub(shl(0xa0, 0x01), 0x01))\n  and\n    /* \"bankLockTest.sol\":1169:1179  msg.sender */\n  caller\n    /* \"bankLockTest.sol\":1161:1179  owner = msg.sender */\n  or\n  swap1\n  sstore\n  0x01\n    /* \"bankLockTest.sol\":1189:1200  counter = 0 */\n  dup1\n  sload\n  not(sub(shl(0x80, 0x01), 0x01))\n  and\n  swap1\n  sstore\n    /* \"bankLockTest.sol\":175:5654  contract TimeLockBox {... */\n  dataSize(sub_0)\n  dup1\n  dataOffset(sub_0)\n  0x00\n  codecopy\n  0x00\n  return\nstop\n\nsub_0: assembly {\n        /* \"bankLockTest.sol\":175:5654  contract TimeLockBox {... */\n      mstore(0x40, 0x80)\n      jumpi(tag_1, lt(calldatasize, 0x04))\n      shr(0xe0, calldataload(0x00))\n      dup1\n      0x61bc221a\n      gt\n      tag_9\n      jumpi\n      dup1\n      0x61bc221a\n      eq\n      tag_5\n      jumpi\n      dup1\n      0x8da5cb5b\n      eq\n      tag_6\n      jumpi\n      dup1\n      0xd48bfca7\n      eq\n      tag_7\n      jumpi\n      dup1\n      0xe88fdde1\n      eq\n      tag_8\n      jumpi\n      0x00\n      dup1\n      revert\n    tag_9:\n      dup1\n      0x04562d95\n      eq\n      tag_2\n      jumpi\n      dup1\n      0x26839f17\n      eq\n      tag_3\n      jumpi\n      dup1\n      0x51cff8d9\n      eq\n      tag_4\n      jumpi\n    tag_1:\n      0x00\n      dup1\n      revert\n        /* \"bankLockTest.sol\":2664:3001  function getReceipt(address _receiptKey) public {... */\n    tag_2:\n      callvalue\n      dup1\n      iszero\n      tag_10\n      jumpi\n      0x00\n      dup1\n      revert\n    tag_10:\n      pop\n      tag_11\n      tag_12\n      calldatasize\n      0x04\n      tag_13\n      jump\t// in\n    tag_12:\n      tag_14\n      jump\t// in\n    tag_11:\n      stop\n        /* \"bankLockTest.sol\":3007:3865  function depositEther(uint256 _lockDays)... */\n    tag_3:\n      tag_11\n      tag_16\n      calldatasize\n      0x04\n      tag_17\n      jump\t// in\n    tag_16:\n      tag_18\n      jump\t// in\n        /* \"bankLockTest.sol\":4881:5652  function withdraw(address _receiptKey) public {... */\n    tag_4:\n      callvalue\n      dup1\n      iszero\n      tag_19\n      jumpi\n      0x00\n      dup1\n      revert\n    tag_19:\n      pop\n      tag_11\n      tag_21\n      calldatasize\n      0x04\n      tag_13\n      jump\t// in\n    tag_21:\n      tag_22\n      jump\t// in\n        /* \"bankLockTest.sol\":228:250  uint128 public counter */\n    tag_5:\n      callvalue\n      dup1\n      iszero\n      tag_23\n      jumpi\n      0x00\n      dup1\n      revert\n    tag_23:\n      pop\n      sload(0x01)\n      tag_24\n      swap1\n      sub(shl(0x80, 0x01), 0x01)\n      and\n      dup2\n      jump\n    tag_24:\n      mload(0x40)\n      sub(shl(0x80, 0x01), 0x01)\n        /* \"#utility.yul\":732:779   */\n      swap1\n      swap2\n      and\n        /* \"#utility.yul\":714:780   */\n      dup2\n      mstore\n        /* \"#utility.yul\":702:704   */\n      0x20\n        /* \"#utility.yul\":687:705   */\n      add\n        /* \"bankLockTest.sol\":228:250  uint128 public counter */\n    tag_26:\n      mload(0x40)\n      dup1\n      swap2\n      sub\n      swap1\n      return\n        /* \"bankLockTest.sol\":202:222  address public owner */\n    tag_6:\n      callvalue\n      dup1\n      iszero\n      tag_28\n      jumpi\n      0x00\n      dup1\n      revert\n    tag_28:\n      pop\n      sload(0x00)\n      tag_29\n      swap1\n      sub(shl(0xa0, 0x01), 0x01)\n      and\n      dup2\n      jump\n    tag_29:\n      mload(0x40)\n      sub(shl(0xa0, 0x01), 0x01)\n        /* \"#utility.yul\":955:987   */\n      swap1\n      swap2\n      and\n        /* \"#utility.yul\":937:988   */\n      dup2\n      mstore\n        /* \"#utility.yul\":925:927   */\n      0x20\n        /* \"#utility.yul\":910:928   */\n      add\n        /* \"bankLockTest.sol\":202:222  address public owner */\n      tag_26\n        /* \"#utility.yul\":791:994   */\n      jump\n        /* \"bankLockTest.sol\":2471:2658  function addToken(address _token) public {... */\n    tag_7:\n      callvalue\n      dup1\n      iszero\n      tag_33\n      jumpi\n      0x00\n      dup1\n      revert\n    tag_33:\n      pop\n      tag_11\n      tag_35\n      calldatasize\n      0x04\n      tag_13\n      jump\t// in\n    tag_35:\n      tag_36\n      jump\t// in\n        /* \"bankLockTest.sol\":3871:4875  function depositErc20Token(... */\n    tag_8:\n      callvalue\n      dup1\n      iszero\n      tag_37\n      jumpi\n      0x00\n      dup1\n      revert\n    tag_37:\n      pop\n      tag_11\n      tag_39\n      calldatasize\n      0x04\n      tag_40\n      jump\t// in\n    tag_39:\n      tag_41\n      jump\t// in\n        /* \"bankLockTest.sol\":2664:3001  function getReceipt(address _receiptKey) public {... */\n    tag_14:\n      sub(shl(0xa0, 0x01), 0x01)\n        /* \"bankLockTest.sol\":2730:2753  hasReceipt[_receiptKey] */\n      dup2\n      and\n      0x00\n      swap1\n      dup2\n      mstore\n        /* \"bankLockTest.sol\":2730:2740  hasReceipt */\n      0x04\n        /* \"bankLockTest.sol\":2730:2753  hasReceipt[_receiptKey] */\n      0x20\n      mstore\n      0x40\n      swap1\n      keccak256\n      sload\n      0xff\n      and\n        /* \"bankLockTest.sol\":2722:2789  require(hasReceipt[_receiptKey], \"has not receipt or already draw\") */\n      tag_43\n      jumpi\n      mload(0x40)\n      shl(0xe5, 0x461bcd)\n      dup2\n      mstore\n        /* \"#utility.yul\":1528:1530   */\n      0x20\n        /* \"bankLockTest.sol\":2722:2789  require(hasReceipt[_receiptKey], \"has not receipt or already draw\") */\n      0x04\n      dup3\n      add\n        /* \"#utility.yul\":1510:1531   */\n      mstore\n        /* \"#utility.yul\":1567:1569   */\n      0x1f\n        /* \"#utility.yul\":1547:1565   */\n      0x24\n      dup3\n      add\n        /* \"#utility.yul\":1540:1570   */\n      mstore\n        /* \"#utility.yul\":1606:1639   */\n      0x686173206e6f742072656365697074206f7220616c7265616479206472617700\n        /* \"#utility.yul\":1586:1604   */\n      0x44\n      dup3\n      add\n        /* \"#utility.yul\":1579:1640   */\n      mstore\n        /* \"#utility.yul\":1657:1675   */\n      0x64\n      add\n        /* \"bankLockTest.sol\":2722:2789  require(hasReceipt[_receiptKey], \"has not receipt or already draw\") */\n    tag_44:\n      mload(0x40)\n      dup1\n      swap2\n      sub\n      swap1\n      revert\n    tag_43:\n      sub(shl(0xa0, 0x01), 0x01)\n        /* \"bankLockTest.sol\":2824:2848  receiptRepo[_receiptKey] */\n      dup2\n      dup2\n      and\n        /* \"bankLockTest.sol\":2799:2821  Receipt memory receipt */\n      0x00\n        /* \"bankLockTest.sol\":2824:2848  receiptRepo[_receiptKey] */\n      swap1\n      dup2\n      mstore\n        /* \"bankLockTest.sol\":2824:2835  receiptRepo */\n      0x03\n        /* \"bankLockTest.sol\":2824:2848  receiptRepo[_receiptKey] */\n      0x20\n      dup2\n      dup2\n      mstore\n      0x40\n      swap3\n      dup4\n      swap1\n      keccak256\n        /* \"bankLockTest.sol\":2799:2848  Receipt memory receipt = receiptRepo[_receiptKey] */\n      dup4\n      mload\n      0xa0\n      dup2\n      add\n      dup6\n      mstore\n      dup2\n      sload\n      dup7\n      and\n      dup1\n      dup3\n      mstore\n      0x01\n      dup4\n      add\n      sload\n      swap1\n      swap7\n      and\n      dup2\n      dup5\n      add\n      dup2\n      swap1\n      mstore\n      0x02\n      dup4\n      add\n      sload\n      dup3\n      dup8\n      add\n      dup2\n      swap1\n      mstore\n      swap5\n      dup4\n      add\n      sload\n      0x60\n      dup1\n      dup5\n      add\n      dup3\n      swap1\n      mstore\n      0x04\n      swap1\n      swap5\n      add\n      sload\n      0xff\n      and\n      iszero\n      iszero\n      0x80\n      dup1\n      dup6\n      add\n      swap2\n      swap1\n      swap2\n      mstore\n        /* \"bankLockTest.sol\":2863:2994  Read(... */\n      dup8\n      mload\n        /* \"#utility.yul\":1955:1989   */\n      swap9\n      dup10\n      mstore\n        /* \"#utility.yul\":2005:2023   */\n      swap5\n      dup9\n      add\n        /* \"#utility.yul\":1998:2041   */\n      swap2\n      swap1\n      swap2\n      mstore\n        /* \"#utility.yul\":2057:2075   */\n      swap5\n      dup7\n      add\n        /* \"#utility.yul\":2050:2084   */\n      swap4\n      swap1\n      swap4\n      mstore\n        /* \"#utility.yul\":2100:2118   */\n      dup5\n      add\n        /* \"#utility.yul\":2093:2127   */\n      swap3\n      swap1\n      swap3\n      mstore\n        /* \"bankLockTest.sol\":2799:2848  Receipt memory receipt = receiptRepo[_receiptKey] */\n      swap2\n        /* \"bankLockTest.sol\":2863:2994  Read(... */\n      0x61e77266757765643421177bf69b869dcc2ed16c3ee15aa4accab69b23c4aa1e\n      swap2\n        /* \"#utility.yul\":1889:1908   */\n      add\n        /* \"bankLockTest.sol\":2863:2994  Read(... */\n    tag_46:\n      mload(0x40)\n      dup1\n      swap2\n      sub\n      swap1\n      log1\n        /* \"bankLockTest.sol\":2712:3001  {... */\n      pop\n        /* \"bankLockTest.sol\":2664:3001  function getReceipt(address _receiptKey) public {... */\n      pop\n      jump\t// out\n        /* \"bankLockTest.sol\":3007:3865  function depositEther(uint256 _lockDays)... */\n    tag_18:\n        /* \"bankLockTest.sol\":3107:3117  msg.sender */\n      caller\n        /* \"@openzeppelin/contracts/utils/Address.sol\":1465:1484  account.code.length */\n      dup1\n      extcodesize\n        /* \"@openzeppelin/contracts/utils/Address.sol\":1465:1488  account.code.length > 0 */\n      iszero\n        /* \"bankLockTest.sol\":1929:1999  require(!Address.isContract(_address), \"not support contract address\") */\n      tag_51\n      jumpi\n      mload(0x40)\n      shl(0xe5, 0x461bcd)\n      dup2\n      mstore\n        /* \"#utility.yul\":2340:2342   */\n      0x20\n        /* \"bankLockTest.sol\":1929:1999  require(!Address.isContract(_address), \"not support contract address\") */\n      0x04\n      dup3\n      add\n        /* \"#utility.yul\":2322:2343   */\n      mstore\n        /* \"#utility.yul\":2379:2381   */\n      0x1c\n        /* \"#utility.yul\":2359:2377   */\n      0x24\n      dup3\n      add\n        /* \"#utility.yul\":2352:2382   */\n      mstore\n        /* \"#utility.yul\":2418:2448   */\n      0x6e6f7420737570706f727420636f6e7472616374206164647265737300000000\n        /* \"#utility.yul\":2398:2416   */\n      0x44\n      dup3\n      add\n        /* \"#utility.yul\":2391:2449   */\n      mstore\n        /* \"#utility.yul\":2466:2484   */\n      0x64\n      add\n        /* \"bankLockTest.sol\":1929:1999  require(!Address.isContract(_address), \"not support contract address\") */\n      tag_44\n        /* \"#utility.yul\":2138:2490   */\n      jump\n        /* \"bankLockTest.sol\":1929:1999  require(!Address.isContract(_address), \"not support contract address\") */\n    tag_51:\n        /* \"bankLockTest.sol\":3144:3153  _lockDays */\n      dup2\n        /* \"bankLockTest.sol\":2112:2113  0 */\n      0x00\n        /* \"bankLockTest.sol\":2100:2109  _lockDays */\n      dup2\n        /* \"bankLockTest.sol\":2100:2113  _lockDays > 0 */\n      gt\n        /* \"bankLockTest.sol\":2099:2137  (_lockDays > 0) && (_lockDays <= 3650) */\n      dup1\n      iszero\n      tag_55\n      jumpi\n      pop\n        /* \"bankLockTest.sol\":2132:2136  3650 */\n      0x0e42\n        /* \"bankLockTest.sol\":2119:2128  _lockDays */\n      dup2\n        /* \"bankLockTest.sol\":2119:2136  _lockDays <= 3650 */\n      gt\n      iszero\n        /* \"bankLockTest.sol\":2099:2137  (_lockDays > 0) && (_lockDays <= 3650) */\n    tag_55:\n        /* \"bankLockTest.sol\":2078:2193  require(... */\n      tag_56\n      jumpi\n      mload(0x40)\n      shl(0xe5, 0x461bcd)\n      dup2\n      mstore\n        /* \"#utility.yul\":2697:2699   */\n      0x20\n        /* \"bankLockTest.sol\":2078:2193  require(... */\n      0x04\n      dup3\n      add\n        /* \"#utility.yul\":2679:2700   */\n      mstore\n        /* \"#utility.yul\":2736:2738   */\n      0x1e\n        /* \"#utility.yul\":2716:2734   */\n      0x24\n      dup3\n      add\n        /* \"#utility.yul\":2709:2739   */\n      mstore\n        /* \"#utility.yul\":2775:2807   */\n      0x6c6f636b4461797320697320746f6f206c61726765206f7220736d616c6c0000\n        /* \"#utility.yul\":2755:2773   */\n      0x44\n      dup3\n      add\n        /* \"#utility.yul\":2748:2808   */\n      mstore\n        /* \"#utility.yul\":2825:2843   */\n      0x64\n      add\n        /* \"bankLockTest.sol\":2078:2193  require(... */\n      tag_44\n        /* \"#utility.yul\":2495:2849   */\n      jump\n        /* \"bankLockTest.sol\":2078:2193  require(... */\n    tag_56:\n        /* \"bankLockTest.sol\":3189:3190  0 */\n      0x00\n        /* \"bankLockTest.sol\":3177:3186  msg.value */\n      callvalue\n        /* \"bankLockTest.sol\":3177:3190  msg.value > 0 */\n      gt\n        /* \"bankLockTest.sol\":3169:3212  require(msg.value > 0, \"ether amount <= 0\") */\n      tag_60\n      jumpi\n      mload(0x40)\n      shl(0xe5, 0x461bcd)\n      dup2\n      mstore\n        /* \"#utility.yul\":3056:3058   */\n      0x20\n        /* \"bankLockTest.sol\":3169:3212  require(msg.value > 0, \"ether amount <= 0\") */\n      0x04\n      dup3\n      add\n        /* \"#utility.yul\":3038:3059   */\n      mstore\n        /* \"#utility.yul\":3095:3097   */\n      0x11\n        /* \"#utility.yul\":3075:3093   */\n      0x24\n      dup3\n      add\n        /* \"#utility.yul\":3068:3098   */\n      mstore\n      shl(0x7c, 0x0657468657220616d6f756e74203c3d203)\n        /* \"#utility.yul\":3114:3132   */\n      0x44\n      dup3\n      add\n        /* \"#utility.yul\":3107:3154   */\n      mstore\n        /* \"#utility.yul\":3171:3189   */\n      0x64\n      add\n        /* \"bankLockTest.sol\":3169:3212  require(msg.value > 0, \"ether amount <= 0\") */\n      tag_44\n        /* \"#utility.yul\":2854:3195   */\n      jump\n        /* \"bankLockTest.sol\":3169:3212  require(msg.value > 0, \"ether amount <= 0\") */\n    tag_60:\n        /* \"bankLockTest.sol\":3222:3241  _incrementCounter() */\n      tag_63\n        /* \"bankLockTest.sol\":3222:3239  _incrementCounter */\n      tag_64\n        /* \"bankLockTest.sol\":3222:3241  _incrementCounter() */\n      jump\t// in\n    tag_63:\n        /* \"bankLockTest.sol\":3251:3269  uint256 unlockTime */\n      0x00\n        /* \"bankLockTest.sol\":3272:3297  _getUnlockTime(_lockDays) */\n      tag_65\n        /* \"bankLockTest.sol\":3287:3296  _lockDays */\n      dup5\n        /* \"bankLockTest.sol\":3272:3286  _getUnlockTime */\n      tag_66\n        /* \"bankLockTest.sol\":3272:3297  _getUnlockTime(_lockDays) */\n      jump\t// in\n    tag_65:\n        /* \"bankLockTest.sol\":3332:3462  Receipt(... */\n      0x40\n      dup1\n      mload\n      0xa0\n      dup2\n      add\n      dup3\n      mstore\n        /* \"bankLockTest.sol\":3353:3363  msg.sender */\n      caller\n        /* \"bankLockTest.sol\":3332:3462  Receipt(... */\n      dup2\n      mstore\n        /* \"bankLockTest.sol\":3307:3329  Receipt memory receipt */\n      0x00\n        /* \"bankLockTest.sol\":3332:3462  Receipt(... */\n      0x20\n      dup3\n      add\n      dup2\n      swap1\n      mstore\n        /* \"bankLockTest.sol\":3401:3410  msg.value */\n      callvalue\n        /* \"bankLockTest.sol\":3332:3462  Receipt(... */\n      swap3\n      dup3\n      add\n      swap3\n      swap1\n      swap3\n      mstore\n      0x60\n      dup2\n      add\n      dup4\n      swap1\n      mstore\n        /* \"bankLockTest.sol\":3448:3452  true */\n      0x01\n        /* \"bankLockTest.sol\":3332:3462  Receipt(... */\n      0x80\n      dup3\n      add\n      dup2\n      swap1\n      mstore\n        /* \"bankLockTest.sol\":3521:3528  counter */\n      sload\n        /* \"bankLockTest.sol\":3251:3297  uint256 unlockTime = _getUnlockTime(_lockDays) */\n      swap3\n      swap4\n      pop\n        /* \"bankLockTest.sol\":3332:3462  Receipt(... */\n      swap2\n        /* \"bankLockTest.sol\":3493:3529  _computeReceiptKey(receipt, counter) */\n      tag_67\n      swap1\n        /* \"bankLockTest.sol\":3332:3462  Receipt(... */\n      dup4\n      swap1\n      sub(shl(0x80, 0x01), 0x01)\n        /* \"bankLockTest.sol\":3521:3528  counter */\n      and\n        /* \"bankLockTest.sol\":3493:3511  _computeReceiptKey */\n      tag_68\n        /* \"bankLockTest.sol\":3493:3529  _computeReceiptKey(receipt, counter) */\n      jump\t// in\n    tag_67:\n      sub(shl(0xa0, 0x01), 0x01)\n        /* \"bankLockTest.sol\":3548:3570  hasReceipt[receiptKey] */\n      dup2\n      and\n      0x00\n      swap1\n      dup2\n      mstore\n        /* \"bankLockTest.sol\":3548:3558  hasReceipt */\n      0x04\n        /* \"bankLockTest.sol\":3548:3570  hasReceipt[receiptKey] */\n      0x20\n      mstore\n      0x40\n      swap1\n      keccak256\n      sload\n        /* \"bankLockTest.sol\":3472:3529  address receiptKey = _computeReceiptKey(receipt, counter) */\n      swap1\n      swap2\n      pop\n        /* \"bankLockTest.sol\":3548:3570  hasReceipt[receiptKey] */\n      0xff\n      and\n        /* \"bankLockTest.sol\":3547:3570  !hasReceipt[receiptKey] */\n      iszero\n        /* \"bankLockTest.sol\":3539:3601  require(!hasReceipt[receiptKey], \"same receipt key collision\") */\n      tag_69\n      jumpi\n      mload(0x40)\n      shl(0xe5, 0x461bcd)\n      dup2\n      mstore\n        /* \"#utility.yul\":3402:3404   */\n      0x20\n        /* \"bankLockTest.sol\":3539:3601  require(!hasReceipt[receiptKey], \"same receipt key collision\") */\n      0x04\n      dup3\n      add\n        /* \"#utility.yul\":3384:3405   */\n      mstore\n        /* \"#utility.yul\":3441:3443   */\n      0x1a\n        /* \"#utility.yul\":3421:3439   */\n      0x24\n      dup3\n      add\n        /* \"#utility.yul\":3414:3444   */\n      mstore\n        /* \"#utility.yul\":3480:3508   */\n      0x73616d652072656365697074206b657920636f6c6c6973696f6e000000000000\n        /* \"#utility.yul\":3460:3478   */\n      0x44\n      dup3\n      add\n        /* \"#utility.yul\":3453:3509   */\n      mstore\n        /* \"#utility.yul\":3526:3544   */\n      0x64\n      add\n        /* \"bankLockTest.sol\":3539:3601  require(!hasReceipt[receiptKey], \"same receipt key collision\") */\n      tag_44\n        /* \"#utility.yul\":3200:3550   */\n      jump\n        /* \"bankLockTest.sol\":3539:3601  require(!hasReceipt[receiptKey], \"same receipt key collision\") */\n    tag_69:\n      sub(shl(0xa0, 0x01), 0x01)\n        /* \"bankLockTest.sol\":3611:3634  receiptRepo[receiptKey] */\n      dup1\n      dup3\n      and\n      0x00\n      swap1\n      dup2\n      mstore\n        /* \"bankLockTest.sol\":3611:3622  receiptRepo */\n      0x03\n        /* \"bankLockTest.sol\":3611:3634  receiptRepo[receiptKey] */\n      0x20\n      dup2\n      dup2\n      mstore\n      0x40\n      dup1\n      dup5\n      keccak256\n        /* \"bankLockTest.sol\":3611:3644  receiptRepo[receiptKey] = receipt */\n      dup8\n      mload\n      dup2\n      sload\n      swap1\n      dup8\n      and\n      not(sub(shl(0xa0, 0x01), 0x01))\n      swap2\n      dup3\n      and\n      or\n      dup3\n      sstore\n      dup4\n      dup10\n      add\n      mload\n      0x01\n      dup1\n      dup5\n      add\n      dup1\n      sload\n      swap3\n      swap1\n      swap10\n      and\n      swap2\n      swap1\n      swap3\n      and\n      or\n      swap1\n      swap7\n      sstore\n      dup2\n      dup9\n      add\n      mload\n      0x02\n      dup3\n      add\n      sstore\n      0x60\n      dup9\n      add\n      mload\n      swap4\n      dup2\n      add\n      swap4\n      swap1\n      swap4\n      sstore\n      0x80\n      dup8\n      add\n      mload\n      0x04\n      swap4\n      dup5\n      add\n      dup1\n      sload\n      swap2\n      iszero\n      iszero\n      not(0xff)\n      swap3\n      dup4\n      and\n      or\n      swap1\n      sstore\n        /* \"bankLockTest.sol\":3654:3676  hasReceipt[receiptKey] */\n      swap3\n      swap1\n      swap2\n      mstore\n      dup1\n      dup4\n      keccak256\n        /* \"bankLockTest.sol\":3654:3683  hasReceipt[receiptKey] = true */\n      dup1\n      sload\n      swap1\n      swap3\n      and\n      swap1\n      swap4\n      or\n      swap1\n      sstore\n        /* \"bankLockTest.sol\":3699:3858  Deposit(... */\n      swap1\n      mload\n      0x76fbc6746f9766ec8a8dc297122a14d120cc5fc43cd3f389031392fd382a236e\n      swap2\n      tag_72\n      swap2\n        /* \"bankLockTest.sol\":3623:3633  receiptKey */\n      dup5\n      swap2\n        /* \"bankLockTest.sol\":3744:3754  msg.sender */\n      caller\n      swap2\n        /* \"bankLockTest.sol\":3792:3801  msg.value */\n      callvalue\n      swap1\n        /* \"bankLockTest.sol\":3815:3824  _lockDays */\n      dup13\n      swap1\n        /* \"bankLockTest.sol\":3838:3848  unlockTime */\n      dup11\n      swap1\n        /* \"bankLockTest.sol\":3699:3858  Deposit(... */\n      tag_73\n      jump\t// in\n    tag_72:\n      mload(0x40)\n      dup1\n      swap2\n      sub\n      swap1\n      log1\n        /* \"bankLockTest.sol\":3159:3865  {... */\n      pop\n      pop\n      pop\n        /* \"bankLockTest.sol\":2009:2010  _ */\n      pop\n        /* \"bankLockTest.sol\":3007:3865  function depositEther(uint256 _lockDays)... */\n      pop\n      pop\n      jump\t// out\n        /* \"bankLockTest.sol\":4881:5652  function withdraw(address _receiptKey) public {... */\n    tag_22:\n      sub(shl(0xa0, 0x01), 0x01)\n        /* \"bankLockTest.sol\":4945:4968  hasReceipt[_receiptKey] */\n      dup2\n      and\n      0x00\n      swap1\n      dup2\n      mstore\n        /* \"bankLockTest.sol\":4945:4955  hasReceipt */\n      0x04\n        /* \"bankLockTest.sol\":4945:4968  hasReceipt[_receiptKey] */\n      0x20\n      mstore\n      0x40\n      swap1\n      keccak256\n      sload\n      0xff\n      and\n        /* \"bankLockTest.sol\":4937:4989  require(hasReceipt[_receiptKey], \"no valid receipt\") */\n      tag_75\n      jumpi\n      mload(0x40)\n      shl(0xe5, 0x461bcd)\n      dup2\n      mstore\n        /* \"#utility.yul\":4362:4364   */\n      0x20\n        /* \"bankLockTest.sol\":4937:4989  require(hasReceipt[_receiptKey], \"no valid receipt\") */\n      0x04\n      dup3\n      add\n        /* \"#utility.yul\":4344:4365   */\n      mstore\n        /* \"#utility.yul\":4401:4403   */\n      0x10\n        /* \"#utility.yul\":4381:4399   */\n      0x24\n      dup3\n      add\n        /* \"#utility.yul\":4374:4404   */\n      mstore\n      shl(0x82, 0x1b9bc81d985b1a59081c9958d95a5c1d)\n        /* \"#utility.yul\":4420:4438   */\n      0x44\n      dup3\n      add\n        /* \"#utility.yul\":4413:4459   */\n      mstore\n        /* \"#utility.yul\":4476:4494   */\n      0x64\n      add\n        /* \"bankLockTest.sol\":4937:4989  require(hasReceipt[_receiptKey], \"no valid receipt\") */\n      tag_44\n        /* \"#utility.yul\":4160:4500   */\n      jump\n        /* \"bankLockTest.sol\":4937:4989  require(hasReceipt[_receiptKey], \"no valid receipt\") */\n    tag_75:\n      sub(shl(0xa0, 0x01), 0x01)\n        /* \"bankLockTest.sol\":5020:5044  receiptRepo[_receiptKey] */\n      dup2\n      and\n      0x00\n      swap1\n      dup2\n      mstore\n        /* \"bankLockTest.sol\":5020:5031  receiptRepo */\n      0x03\n        /* \"bankLockTest.sol\":5020:5044  receiptRepo[_receiptKey] */\n      0x20\n      dup2\n      swap1\n      mstore\n      0x40\n      swap1\n      swap2\n      keccak256\n        /* \"bankLockTest.sol\":5020:5055  receiptRepo[_receiptKey].unlockTime */\n      add\n      sload\n        /* \"bankLockTest.sol\":5058:5073  block.timestamp */\n      timestamp\n      gt\n        /* \"bankLockTest.sol\":4999:5122  require(... */\n      tag_78\n      jumpi\n      mload(0x40)\n      shl(0xe5, 0x461bcd)\n      dup2\n      mstore\n        /* \"#utility.yul\":4707:4709   */\n      0x20\n        /* \"bankLockTest.sol\":4999:5122  require(... */\n      0x04\n      dup3\n      add\n        /* \"#utility.yul\":4689:4710   */\n      mstore\n        /* \"#utility.yul\":4746:4748   */\n      0x17\n        /* \"#utility.yul\":4726:4744   */\n      0x24\n      dup3\n      add\n        /* \"#utility.yul\":4719:4749   */\n      mstore\n        /* \"#utility.yul\":4785:4810   */\n      0x756e6c6f636b2074696d65206e6f742072656163686564000000000000000000\n        /* \"#utility.yul\":4765:4783   */\n      0x44\n      dup3\n      add\n        /* \"#utility.yul\":4758:4811   */\n      mstore\n        /* \"#utility.yul\":4828:4846   */\n      0x64\n      add\n        /* \"bankLockTest.sol\":4999:5122  require(... */\n      tag_44\n        /* \"#utility.yul\":4505:4852   */\n      jump\n        /* \"bankLockTest.sol\":4999:5122  require(... */\n    tag_78:\n      sub(shl(0xa0, 0x01), 0x01)\n        /* \"bankLockTest.sol\":5132:5155  hasReceipt[_receiptKey] */\n      dup1\n      dup3\n      and\n        /* \"bankLockTest.sol\":5158:5163  false */\n      0x00\n        /* \"bankLockTest.sol\":5132:5155  hasReceipt[_receiptKey] */\n      swap1\n      dup2\n      mstore\n        /* \"bankLockTest.sol\":5132:5142  hasReceipt */\n      0x04\n        /* \"bankLockTest.sol\":5132:5155  hasReceipt[_receiptKey] */\n      0x20\n      dup2\n      dup2\n      mstore\n      0x40\n      dup1\n      dup5\n      keccak256\n        /* \"bankLockTest.sol\":5132:5163  hasReceipt[_receiptKey] = false */\n      dup1\n      sload\n      not(0xff)\n      and\n      swap1\n      sstore\n        /* \"bankLockTest.sol\":5198:5209  receiptRepo */\n      0x03\n        /* \"bankLockTest.sol\":5198:5222  receiptRepo[_receiptKey] */\n      dup1\n      dup4\n      mstore\n      swap4\n      dup2\n      swap1\n      keccak256\n        /* \"bankLockTest.sol\":5173:5222  Receipt memory receipt = receiptRepo[_receiptKey] */\n      dup2\n      mload\n      0xa0\n      dup2\n      add\n      dup4\n      mstore\n      dup2\n      sload\n      dup8\n      and\n      dup2\n      mstore\n        /* \"bankLockTest.sol\":5132:5163  hasReceipt[_receiptKey] = false */\n      0x01\n        /* \"bankLockTest.sol\":5173:5222  Receipt memory receipt = receiptRepo[_receiptKey] */\n      dup3\n      add\n      sload\n      swap1\n      swap7\n      and\n      swap3\n      dup7\n      add\n      swap3\n      swap1\n      swap3\n      mstore\n      0x02\n      dup3\n      add\n      sload\n      swap1\n      dup6\n      add\n      mstore\n      swap2\n      dup3\n      add\n      sload\n      0x60\n      dup5\n      add\n      mstore\n      add\n      sload\n        /* \"bankLockTest.sol\":5132:5163  hasReceipt[_receiptKey] = false */\n      0xff\n        /* \"bankLockTest.sol\":5173:5222  Receipt memory receipt = receiptRepo[_receiptKey] */\n      and\n      iszero\n      dup1\n      iszero\n      0x80\n      dup4\n      add\n      mstore\n        /* \"bankLockTest.sol\":5233:5474  if (receipt.isEther) {... */\n      tag_81\n      jumpi\n        /* \"bankLockTest.sol\":5276:5292  receipt.customer */\n      dup1\n      mload\n        /* \"bankLockTest.sol\":5303:5317  receipt.amount */\n      0x40\n      dup1\n      dup4\n      add\n      mload\n        /* \"bankLockTest.sol\":5268:5318  payable(receipt.customer).transfer(receipt.amount) */\n      swap1\n      mload\n      sub(shl(0xa0, 0x01), 0x01)\n        /* \"bankLockTest.sol\":5268:5302  payable(receipt.customer).transfer */\n      swap1\n      swap3\n      and\n      swap2\n        /* \"bankLockTest.sol\":5268:5318  payable(receipt.customer).transfer(receipt.amount) */\n      dup2\n      iszero\n      0x08fc\n      mul\n      swap2\n        /* \"bankLockTest.sol\":5303:5317  receipt.amount */\n      swap1\n        /* \"bankLockTest.sol\":5276:5292  receipt.customer */\n      0x00\n        /* \"bankLockTest.sol\":5268:5318  payable(receipt.customer).transfer(receipt.amount) */\n      dup2\n        /* \"bankLockTest.sol\":5276:5292  receipt.customer */\n      dup2\n        /* \"bankLockTest.sol\":5268:5318  payable(receipt.customer).transfer(receipt.amount) */\n      dup2\n        /* \"bankLockTest.sol\":5303:5317  receipt.amount */\n      dup6\n        /* \"bankLockTest.sol\":5268:5302  payable(receipt.customer).transfer */\n      dup9\n        /* \"bankLockTest.sol\":5268:5318  payable(receipt.customer).transfer(receipt.amount) */\n      dup9\n      call\n      swap4\n      pop\n      pop\n      pop\n      pop\n      iszero\n      dup1\n      iszero\n      tag_83\n      jumpi\n      returndatasize\n      0x00\n      dup1\n      returndatacopy\n      revert(0x00, returndatasize)\n    tag_83:\n      pop\n        /* \"bankLockTest.sol\":5233:5474  if (receipt.isEther) {... */\n      jump(tag_85)\n    tag_81:\n        /* \"bankLockTest.sol\":5401:5417  receipt.customer */\n      dup1\n      mload\n        /* \"bankLockTest.sol\":5435:5449  receipt.amount */\n      0x40\n      dup3\n      add\n      mload\n        /* \"bankLockTest.sol\":5356:5369  receipt.token */\n      0x20\n      dup4\n      add\n      mload\n        /* \"bankLockTest.sol\":5349:5463  IERC20(receipt.token).safeTransfer(... */\n      tag_85\n      swap3\n      sub(shl(0xa0, 0x01), 0x01)\n        /* \"bankLockTest.sol\":5349:5383  IERC20(receipt.token).safeTransfer */\n      swap1\n      swap2\n      and\n      swap2\n      tag_86\n        /* \"bankLockTest.sol\":5349:5463  IERC20(receipt.token).safeTransfer(... */\n      jump\t// in\n    tag_85:\n        /* \"bankLockTest.sol\":5535:5551  receipt.customer */\n      dup1\n      mload\n        /* \"bankLockTest.sol\":5565:5578  receipt.token */\n      0x20\n      dup1\n      dup4\n      add\n      mload\n        /* \"bankLockTest.sol\":5592:5606  receipt.amount */\n      0x40\n      dup1\n      dup6\n      add\n      mload\n        /* \"bankLockTest.sol\":5488:5645  Withdraw(... */\n      dup2\n      mload\n      sub(shl(0xa0, 0x01), 0x01)\n        /* \"#utility.yul\":5172:5187   */\n      dup1\n      dup10\n      and\n        /* \"#utility.yul\":5154:5188   */\n      dup3\n      mstore\n        /* \"#utility.yul\":5224:5239   */\n      swap6\n      dup7\n      and\n        /* \"#utility.yul\":5204:5222   */\n      swap5\n      dup2\n      add\n        /* \"#utility.yul\":5197:5240   */\n      swap5\n      swap1\n      swap5\n      mstore\n        /* \"#utility.yul\":5276:5291   */\n      swap4\n      swap1\n      swap2\n      and\n        /* \"#utility.yul\":5256:5274   */\n      swap1\n      dup3\n      add\n        /* \"#utility.yul\":5249:5292   */\n      mstore\n        /* \"#utility.yul\":5323:5325   */\n      0x60\n        /* \"#utility.yul\":5308:5326   */\n      dup2\n      add\n        /* \"#utility.yul\":5301:5335   */\n      swap2\n      swap1\n      swap2\n      mstore\n        /* \"bankLockTest.sol\":5620:5635  block.timestamp */\n      timestamp\n        /* \"#utility.yul\":5366:5369   */\n      0x80\n        /* \"#utility.yul\":5351:5370   */\n      dup3\n      add\n        /* \"#utility.yul\":5344:5379   */\n      mstore\n        /* \"bankLockTest.sol\":5488:5645  Withdraw(... */\n      0xfbde797d201c681b91056529119e0b02407c7bb96a4a2c75c01fc9667232c8db\n      swap1\n        /* \"#utility.yul\":5103:5106   */\n      0xa0\n        /* \"#utility.yul\":5088:5107   */\n      add\n        /* \"bankLockTest.sol\":5488:5645  Withdraw(... */\n      tag_46\n        /* \"#utility.yul\":4857:5385   */\n      jump\n        /* \"bankLockTest.sol\":2471:2658  function addToken(address _token) public {... */\n    tag_36:\n        /* \"bankLockTest.sol\":2544:2549  owner */\n      and(sub(shl(0xa0, 0x01), 0x01), sload(0x00))\n        /* \"bankLockTest.sol\":2530:2540  msg.sender */\n      caller\n        /* \"bankLockTest.sol\":2530:2549  msg.sender == owner */\n      eq\n        /* \"bankLockTest.sol\":2522:2579  require(msg.sender == owner, \"only owner can add tokens\") */\n      tag_90\n      jumpi\n      mload(0x40)\n      shl(0xe5, 0x461bcd)\n      dup2\n      mstore\n        /* \"#utility.yul\":5592:5594   */\n      0x20\n        /* \"bankLockTest.sol\":2522:2579  require(msg.sender == owner, \"only owner can add tokens\") */\n      0x04\n      dup3\n      add\n        /* \"#utility.yul\":5574:5595   */\n      mstore\n        /* \"#utility.yul\":5631:5633   */\n      0x19\n        /* \"#utility.yul\":5611:5629   */\n      0x24\n      dup3\n      add\n        /* \"#utility.yul\":5604:5634   */\n      mstore\n        /* \"#utility.yul\":5670:5697   */\n      0x6f6e6c79206f776e65722063616e2061646420746f6b656e7300000000000000\n        /* \"#utility.yul\":5650:5668   */\n      0x44\n      dup3\n      add\n        /* \"#utility.yul\":5643:5698   */\n      mstore\n        /* \"#utility.yul\":5715:5733   */\n      0x64\n      add\n        /* \"bankLockTest.sol\":2522:2579  require(msg.sender == owner, \"only owner can add tokens\") */\n      tag_44\n        /* \"#utility.yul\":5390:5739   */\n      jump\n        /* \"bankLockTest.sol\":2522:2579  require(msg.sender == owner, \"only owner can add tokens\") */\n    tag_90:\n      sub(shl(0xa0, 0x01), 0x01)\n        /* \"bankLockTest.sol\":2589:2613  legalErc20Tokens[_token] */\n      dup2\n      and\n      0x00\n      dup2\n      dup2\n      mstore\n        /* \"bankLockTest.sol\":2589:2605  legalErc20Tokens */\n      0x02\n        /* \"bankLockTest.sol\":2589:2613  legalErc20Tokens[_token] */\n      0x20\n      swap1\n      dup2\n      mstore\n      0x40\n      swap2\n      dup3\n      swap1\n      keccak256\n        /* \"bankLockTest.sol\":2589:2620  legalErc20Tokens[_token] = true */\n      dup1\n      sload\n      not(0xff)\n      and\n        /* \"bankLockTest.sol\":2616:2620  true */\n      0x01\n        /* \"bankLockTest.sol\":2589:2620  legalErc20Tokens[_token] = true */\n      or\n      swap1\n      sstore\n        /* \"bankLockTest.sol\":2635:2651  AddToken(_token) */\n      swap1\n      mload\n        /* \"#utility.yul\":937:988   */\n      swap2\n      dup3\n      mstore\n        /* \"bankLockTest.sol\":2635:2651  AddToken(_token) */\n      0xe473c74f34be27c1464d6624f14a0d7fd4e301cbfa29c3eba425d378c8a7ebe0\n      swap2\n        /* \"#utility.yul\":910:928   */\n      add\n        /* \"bankLockTest.sol\":2635:2651  AddToken(_token) */\n      mload(0x40)\n      dup1\n      swap2\n      sub\n      swap1\n      log1\n        /* \"bankLockTest.sol\":2471:2658  function addToken(address _token) public {... */\n      pop\n      jump\t// out\n        /* \"bankLockTest.sol\":3871:4875  function depositErc20Token(... */\n    tag_41:\n      sub(shl(0xa0, 0x01), 0x01)\n        /* \"bankLockTest.sol\":1804:1828  legalErc20Tokens[_token] */\n      dup4\n      and\n      0x00\n      swap1\n      dup2\n      mstore\n        /* \"bankLockTest.sol\":1804:1820  legalErc20Tokens */\n      0x02\n        /* \"bankLockTest.sol\":1804:1828  legalErc20Tokens[_token] */\n      0x20\n      mstore\n      0x40\n      swap1\n      keccak256\n      sload\n        /* \"bankLockTest.sol\":4022:4028  _token */\n      dup4\n      swap1\n        /* \"bankLockTest.sol\":1804:1828  legalErc20Tokens[_token] */\n      0xff\n      and\n        /* \"bankLockTest.sol\":1796:1848  require(legalErc20Tokens[_token], \"not legal token\") */\n      tag_95\n      jumpi\n      mload(0x40)\n      shl(0xe5, 0x461bcd)\n      dup2\n      mstore\n        /* \"#utility.yul\":5946:5948   */\n      0x20\n        /* \"bankLockTest.sol\":1796:1848  require(legalErc20Tokens[_token], \"not legal token\") */\n      0x04\n      dup3\n      add\n        /* \"#utility.yul\":5928:5949   */\n      mstore\n        /* \"#utility.yul\":5985:5987   */\n      0x0f\n        /* \"#utility.yul\":5965:5983   */\n      0x24\n      dup3\n      add\n        /* \"#utility.yul\":5958:5988   */\n      mstore\n      shl(0x89, 0x3737ba103632b3b0b6103a37b5b2b7)\n        /* \"#utility.yul\":6004:6022   */\n      0x44\n      dup3\n      add\n        /* \"#utility.yul\":5997:6042   */\n      mstore\n        /* \"#utility.yul\":6059:6077   */\n      0x64\n      add\n        /* \"bankLockTest.sol\":1796:1848  require(legalErc20Tokens[_token], \"not legal token\") */\n      tag_44\n        /* \"#utility.yul\":5744:6083   */\n      jump\n        /* \"bankLockTest.sol\":1796:1848  require(legalErc20Tokens[_token], \"not legal token\") */\n    tag_95:\n        /* \"bankLockTest.sol\":4058:4068  msg.sender */\n      caller\n        /* \"@openzeppelin/contracts/utils/Address.sol\":1465:1484  account.code.length */\n      dup1\n      extcodesize\n        /* \"@openzeppelin/contracts/utils/Address.sol\":1465:1488  account.code.length > 0 */\n      iszero\n        /* \"bankLockTest.sol\":1929:1999  require(!Address.isContract(_address), \"not support contract address\") */\n      tag_100\n      jumpi\n      mload(0x40)\n      shl(0xe5, 0x461bcd)\n      dup2\n      mstore\n        /* \"#utility.yul\":2340:2342   */\n      0x20\n        /* \"bankLockTest.sol\":1929:1999  require(!Address.isContract(_address), \"not support contract address\") */\n      0x04\n      dup3\n      add\n        /* \"#utility.yul\":2322:2343   */\n      mstore\n        /* \"#utility.yul\":2379:2381   */\n      0x1c\n        /* \"#utility.yul\":2359:2377   */\n      0x24\n      dup3\n      add\n        /* \"#utility.yul\":2352:2382   */\n      mstore\n        /* \"#utility.yul\":2418:2448   */\n      0x6e6f7420737570706f727420636f6e7472616374206164647265737300000000\n        /* \"#utility.yul\":2398:2416   */\n      0x44\n      dup3\n      add\n        /* \"#utility.yul\":2391:2449   */\n      mstore\n        /* \"#utility.yul\":2466:2484   */\n      0x64\n      add\n        /* \"bankLockTest.sol\":1929:1999  require(!Address.isContract(_address), \"not support contract address\") */\n      tag_44\n        /* \"#utility.yul\":2138:2490   */\n      jump\n        /* \"bankLockTest.sol\":1929:1999  require(!Address.isContract(_address), \"not support contract address\") */\n    tag_100:\n        /* \"bankLockTest.sol\":4095:4104  _lockDays */\n      dup3\n        /* \"bankLockTest.sol\":2112:2113  0 */\n      0x00\n        /* \"bankLockTest.sol\":2100:2109  _lockDays */\n      dup2\n        /* \"bankLockTest.sol\":2100:2113  _lockDays > 0 */\n      gt\n        /* \"bankLockTest.sol\":2099:2137  (_lockDays > 0) && (_lockDays <= 3650) */\n      dup1\n      iszero\n      tag_103\n      jumpi\n      pop\n        /* \"bankLockTest.sol\":2132:2136  3650 */\n      0x0e42\n        /* \"bankLockTest.sol\":2119:2128  _lockDays */\n      dup2\n        /* \"bankLockTest.sol\":2119:2136  _lockDays <= 3650 */\n      gt\n      iszero\n        /* \"bankLockTest.sol\":2099:2137  (_lockDays > 0) && (_lockDays <= 3650) */\n    tag_103:\n        /* \"bankLockTest.sol\":2078:2193  require(... */\n      tag_104\n      jumpi\n      mload(0x40)\n      shl(0xe5, 0x461bcd)\n      dup2\n      mstore\n        /* \"#utility.yul\":2697:2699   */\n      0x20\n        /* \"bankLockTest.sol\":2078:2193  require(... */\n      0x04\n      dup3\n      add\n        /* \"#utility.yul\":2679:2700   */\n      mstore\n        /* \"#utility.yul\":2736:2738   */\n      0x1e\n        /* \"#utility.yul\":2716:2734   */\n      0x24\n      dup3\n      add\n        /* \"#utility.yul\":2709:2739   */\n      mstore\n        /* \"#utility.yul\":2775:2807   */\n      0x6c6f636b4461797320697320746f6f206c61726765206f7220736d616c6c0000\n        /* \"#utility.yul\":2755:2773   */\n      0x44\n      dup3\n      add\n        /* \"#utility.yul\":2748:2808   */\n      mstore\n        /* \"#utility.yul\":2825:2843   */\n      0x64\n      add\n        /* \"bankLockTest.sol\":2078:2193  require(... */\n      tag_44\n        /* \"#utility.yul\":2495:2849   */\n      jump\n        /* \"bankLockTest.sol\":2078:2193  require(... */\n    tag_104:\n        /* \"bankLockTest.sol\":4138:4139  0 */\n      0x00\n        /* \"bankLockTest.sol\":4128:4135  _amount */\n      dup6\n        /* \"bankLockTest.sol\":4128:4139  _amount > 0 */\n      gt\n        /* \"bankLockTest.sol\":4120:4155  require(_amount > 0, \"amount <= 0\") */\n      tag_107\n      jumpi\n      mload(0x40)\n      shl(0xe5, 0x461bcd)\n      dup2\n      mstore\n        /* \"#utility.yul\":6290:6292   */\n      0x20\n        /* \"bankLockTest.sol\":4120:4155  require(_amount > 0, \"amount <= 0\") */\n      0x04\n      dup3\n      add\n        /* \"#utility.yul\":6272:6293   */\n      mstore\n        /* \"#utility.yul\":6329:6331   */\n      0x0b\n        /* \"#utility.yul\":6309:6327   */\n      0x24\n      dup3\n      add\n        /* \"#utility.yul\":6302:6332   */\n      mstore\n      shl(0xac, 0x0616d6f756e74203c3d203)\n        /* \"#utility.yul\":6348:6366   */\n      0x44\n      dup3\n      add\n        /* \"#utility.yul\":6341:6382   */\n      mstore\n        /* \"#utility.yul\":6399:6417   */\n      0x64\n      add\n        /* \"bankLockTest.sol\":4120:4155  require(_amount > 0, \"amount <= 0\") */\n      tag_44\n        /* \"#utility.yul\":6088:6423   */\n      jump\n        /* \"bankLockTest.sol\":4120:4155  require(_amount > 0, \"amount <= 0\") */\n    tag_107:\n        /* \"bankLockTest.sol\":4165:4184  _incrementCounter() */\n      tag_110\n        /* \"bankLockTest.sol\":4165:4182  _incrementCounter */\n      tag_64\n        /* \"bankLockTest.sol\":4165:4184  _incrementCounter() */\n      jump\t// in\n    tag_110:\n        /* \"bankLockTest.sol\":4195:4213  uint256 unlockTime */\n      0x00\n        /* \"bankLockTest.sol\":4216:4241  _getUnlockTime(_lockDays) */\n      tag_111\n        /* \"bankLockTest.sol\":4231:4240  _lockDays */\n      dup6\n        /* \"bankLockTest.sol\":4216:4230  _getUnlockTime */\n      tag_66\n        /* \"bankLockTest.sol\":4216:4241  _getUnlockTime(_lockDays) */\n      jump\t// in\n    tag_111:\n        /* \"bankLockTest.sol\":4276:4401  Receipt(... */\n      0x40\n      dup1\n      mload\n      0xa0\n      dup2\n      add\n      dup3\n      mstore\n        /* \"bankLockTest.sol\":4297:4307  msg.sender */\n      caller\n        /* \"bankLockTest.sol\":4276:4401  Receipt(... */\n      dup2\n      mstore\n      sub(shl(0xa0, 0x01), 0x01)\n      dup11\n      and\n      0x20\n      dup3\n      add\n      mstore\n      swap1\n      dup2\n      add\n      dup9\n      swap1\n      mstore\n      0x60\n      dup2\n      add\n      dup3\n      swap1\n      mstore\n        /* \"bankLockTest.sol\":4251:4273  Receipt memory receipt */\n      0x00\n        /* \"bankLockTest.sol\":4276:4401  Receipt(... */\n      0x80\n      dup3\n      add\n      dup2\n      swap1\n      mstore\n      0x01\n        /* \"bankLockTest.sol\":4460:4467  counter */\n      sload\n        /* \"bankLockTest.sol\":4195:4241  uint256 unlockTime = _getUnlockTime(_lockDays) */\n      swap3\n      swap4\n      pop\n        /* \"bankLockTest.sol\":4276:4401  Receipt(... */\n      swap1\n      swap2\n        /* \"bankLockTest.sol\":4432:4468  _computeReceiptKey(receipt, counter) */\n      tag_112\n      swap1\n        /* \"bankLockTest.sol\":4276:4401  Receipt(... */\n      dup4\n      swap1\n      sub(shl(0x80, 0x01), 0x01)\n        /* \"bankLockTest.sol\":4460:4467  counter */\n      and\n        /* \"bankLockTest.sol\":4432:4450  _computeReceiptKey */\n      tag_68\n        /* \"bankLockTest.sol\":4432:4468  _computeReceiptKey(receipt, counter) */\n      jump\t// in\n    tag_112:\n      sub(shl(0xa0, 0x01), 0x01)\n        /* \"bankLockTest.sol\":4487:4509  hasReceipt[receiptKey] */\n      dup2\n      and\n      0x00\n      swap1\n      dup2\n      mstore\n        /* \"bankLockTest.sol\":4487:4497  hasReceipt */\n      0x04\n        /* \"bankLockTest.sol\":4487:4509  hasReceipt[receiptKey] */\n      0x20\n      mstore\n      0x40\n      swap1\n      keccak256\n      sload\n        /* \"bankLockTest.sol\":4411:4468  address receiptKey = _computeReceiptKey(receipt, counter) */\n      swap1\n      swap2\n      pop\n        /* \"bankLockTest.sol\":4487:4509  hasReceipt[receiptKey] */\n      0xff\n      and\n        /* \"bankLockTest.sol\":4486:4509  !hasReceipt[receiptKey] */\n      iszero\n        /* \"bankLockTest.sol\":4478:4540  require(!hasReceipt[receiptKey], \"same receipt key collision\") */\n      tag_113\n      jumpi\n      mload(0x40)\n      shl(0xe5, 0x461bcd)\n      dup2\n      mstore\n        /* \"#utility.yul\":3402:3404   */\n      0x20\n        /* \"bankLockTest.sol\":4478:4540  require(!hasReceipt[receiptKey], \"same receipt key collision\") */\n      0x04\n      dup3\n      add\n        /* \"#utility.yul\":3384:3405   */\n      mstore\n        /* \"#utility.yul\":3441:3443   */\n      0x1a\n        /* \"#utility.yul\":3421:3439   */\n      0x24\n      dup3\n      add\n        /* \"#utility.yul\":3414:3444   */\n      mstore\n        /* \"#utility.yul\":3480:3508   */\n      0x73616d652072656365697074206b657920636f6c6c6973696f6e000000000000\n        /* \"#utility.yul\":3460:3478   */\n      0x44\n      dup3\n      add\n        /* \"#utility.yul\":3453:3509   */\n      mstore\n        /* \"#utility.yul\":3526:3544   */\n      0x64\n      add\n        /* \"bankLockTest.sol\":4478:4540  require(!hasReceipt[receiptKey], \"same receipt key collision\") */\n      tag_44\n        /* \"#utility.yul\":3200:3550   */\n      jump\n        /* \"bankLockTest.sol\":4478:4540  require(!hasReceipt[receiptKey], \"same receipt key collision\") */\n    tag_113:\n      sub(shl(0xa0, 0x01), 0x01)\n        /* \"bankLockTest.sol\":4550:4573  receiptRepo[receiptKey] */\n      dup1\n      dup3\n      and\n      0x00\n      swap1\n      dup2\n      mstore\n        /* \"bankLockTest.sol\":4550:4561  receiptRepo */\n      0x03\n        /* \"bankLockTest.sol\":4550:4573  receiptRepo[receiptKey] */\n      0x20\n      dup2\n      dup2\n      mstore\n      0x40\n      dup1\n      dup5\n      keccak256\n        /* \"bankLockTest.sol\":4550:4583  receiptRepo[receiptKey] = receipt */\n      dup8\n      mload\n      dup2\n      sload\n      swap1\n      dup8\n      and\n      not(sub(shl(0xa0, 0x01), 0x01))\n      swap2\n      dup3\n      and\n      or\n      dup3\n      sstore\n      dup4\n      dup10\n      add\n      mload\n      0x01\n      dup1\n      dup5\n      add\n      dup1\n      sload\n      swap3\n      dup11\n      and\n      swap3\n      swap1\n      swap4\n      and\n      swap2\n      swap1\n      swap2\n      or\n      swap1\n      swap2\n      sstore\n      dup3\n      dup10\n      add\n      mload\n      0x02\n      dup4\n      add\n      sstore\n      0x60\n      dup10\n      add\n      mload\n      swap5\n      dup3\n      add\n      swap5\n      swap1\n      swap5\n      sstore\n      0x80\n      dup9\n      add\n      mload\n      0x04\n      swap2\n      dup3\n      add\n      dup1\n      sload\n      swap2\n      iszero\n      iszero\n      not(0xff)\n      swap3\n      dup4\n      and\n      or\n      swap1\n      sstore\n        /* \"bankLockTest.sol\":4593:4615  hasReceipt[receiptKey] */\n      swap3\n      mstore\n      swap1\n      swap3\n      keccak256\n        /* \"bankLockTest.sol\":4593:4622  hasReceipt[receiptKey] = true */\n      dup1\n      sload\n      swap1\n      swap3\n      and\n      or\n      swap1\n      sstore\n        /* \"bankLockTest.sol\":4632:4699  IERC20(_token).safeTransferFrom(msg.sender, address(this), _amount) */\n      tag_115\n      swap1\n        /* \"bankLockTest.sol\":4632:4663  IERC20(_token).safeTransferFrom */\n      dup11\n      and\n        /* \"bankLockTest.sol\":4664:4674  msg.sender */\n      caller\n        /* \"bankLockTest.sol\":4684:4688  this */\n      address\n        /* \"bankLockTest.sol\":4691:4698  _amount */\n      dup12\n        /* \"bankLockTest.sol\":4632:4663  IERC20(_token).safeTransferFrom */\n      tag_116\n        /* \"bankLockTest.sol\":4632:4699  IERC20(_token).safeTransferFrom(msg.sender, address(this), _amount) */\n      jump\t// in\n    tag_115:\n        /* \"bankLockTest.sol\":4715:4868  Deposit(... */\n      0x76fbc6746f9766ec8a8dc297122a14d120cc5fc43cd3f389031392fd382a236e\n        /* \"bankLockTest.sol\":4736:4746  receiptKey */\n      dup2\n        /* \"bankLockTest.sol\":4760:4770  msg.sender */\n      caller\n        /* \"bankLockTest.sol\":4784:4790  _token */\n      dup12\n        /* \"bankLockTest.sol\":4804:4811  _amount */\n      dup12\n        /* \"bankLockTest.sol\":4825:4834  _lockDays */\n      dup12\n        /* \"bankLockTest.sol\":4848:4858  unlockTime */\n      dup9\n        /* \"bankLockTest.sol\":4715:4868  Deposit(... */\n      mload(0x40)\n      tag_117\n      swap7\n      swap6\n      swap5\n      swap4\n      swap3\n      swap2\n      swap1\n      tag_73\n      jump\t// in\n    tag_117:\n      mload(0x40)\n      dup1\n      swap2\n      sub\n      swap1\n      log1\n        /* \"bankLockTest.sol\":4110:4875  {... */\n      pop\n      pop\n      pop\n        /* \"bankLockTest.sol\":2009:2010  _ */\n      pop\n        /* \"bankLockTest.sol\":1858:1859  _ */\n      pop\n        /* \"bankLockTest.sol\":3871:4875  function depositErc20Token(... */\n      pop\n      pop\n      pop\n      pop\n      jump\t// out\n        /* \"bankLockTest.sol\":2356:2465  function _incrementCounter() private {... */\n    tag_64:\n        /* \"bankLockTest.sol\":2437:2444  counter */\n      0x01\n      dup1\n      sload\n      sub(shl(0x80, 0x01), 0x01)\n      dup1\n      dup3\n      and\n        /* \"bankLockTest.sol\":2437:2448  counter + 1 */\n      dup4\n      add\n        /* \"bankLockTest.sol\":2427:2448  counter = counter + 1 */\n      and\n      not(0xffffffffffffffffffffffffffffffff)\n      swap1\n      swap2\n      and\n      or\n      swap1\n      sstore\n        /* \"bankLockTest.sol\":2356:2465  function _incrementCounter() private {... */\n      jump\t// out\n        /* \"bankLockTest.sol\":2217:2350  function _getUnlockTime(uint256 _lockDays) private view returns (uint256) {... */\n    tag_66:\n        /* \"bankLockTest.sol\":2282:2289  uint256 */\n      0x00\n        /* \"bankLockTest.sol\":2328:2343  block.timestamp */\n      timestamp\n        /* \"bankLockTest.sol\":2308:2325  _lockDays * 86400 */\n      tag_121\n        /* \"bankLockTest.sol\":2308:2317  _lockDays */\n      dup4\n        /* \"bankLockTest.sol\":2320:2325  86400 */\n      0x015180\n        /* \"bankLockTest.sol\":2308:2325  _lockDays * 86400 */\n      tag_122\n      jump\t// in\n    tag_121:\n        /* \"bankLockTest.sol\":2308:2343  _lockDays * 86400 + block.timestamp */\n      tag_123\n      swap2\n      swap1\n      tag_124\n      jump\t// in\n    tag_123:\n        /* \"bankLockTest.sol\":2301:2343  return _lockDays * 86400 + block.timestamp */\n      swap3\n        /* \"bankLockTest.sol\":2217:2350  function _getUnlockTime(uint256 _lockDays) private view returns (uint256) {... */\n      swap2\n      pop\n      pop\n      jump\t// out\n        /* \"bankLockTest.sol\":1213:1736  function _computeReceiptKey(Receipt memory _receipt, uint256 _counter)... */\n    tag_68:\n        /* \"bankLockTest.sol\":1542:1559  _receipt.customer */\n      dup2\n      mload\n        /* \"bankLockTest.sol\":1330:1337  address */\n      0x00\n      swap1\n        /* \"bankLockTest.sol\":1593:1619  _counter + block.timestamp */\n      tag_126\n        /* \"bankLockTest.sol\":1604:1619  block.timestamp */\n      timestamp\n        /* \"bankLockTest.sol\":1593:1601  _counter */\n      dup5\n        /* \"bankLockTest.sol\":1593:1619  _counter + block.timestamp */\n      tag_124\n      jump\t// in\n    tag_126:\n        /* \"bankLockTest.sol\":1498:1649  abi.encode(... */\n      0x40\n      dup1\n      mload\n      sub(shl(0xa0, 0x01), 0x01)\n        /* \"#utility.yul\":7055:7087   */\n      swap1\n      swap4\n      and\n        /* \"bankLockTest.sol\":1498:1649  abi.encode(... */\n      0x20\n      dup5\n      add\n        /* \"#utility.yul\":7037:7088   */\n      mstore\n        /* \"#utility.yul\":7104:7122   */\n      dup3\n      add\n        /* \"#utility.yul\":7097:7131   */\n      mstore\n        /* \"#utility.yul\":7010:7028   */\n      0x60\n      add\n        /* \"bankLockTest.sol\":1498:1649  abi.encode(... */\n      0x40\n      dup1\n      mload\n      not(0x1f)\n      dup2\n      dup5\n      sub\n      add\n      dup2\n      mstore\n      swap2\n      swap1\n      mstore\n        /* \"bankLockTest.sol\":1459:1675  keccak256(... */\n      dup1\n      mload\n        /* \"bankLockTest.sol\":1498:1649  abi.encode(... */\n      0x20\n        /* \"bankLockTest.sol\":1459:1675  keccak256(... */\n      swap1\n      swap2\n      add\n      keccak256\n      swap4\n        /* \"bankLockTest.sol\":1213:1736  function _computeReceiptKey(Receipt memory _receipt, uint256 _counter)... */\n      swap3\n      pop\n      pop\n      pop\n      jump\t// out\n        /* \"@openzeppelin/contracts/token/ERC20/utils/SafeERC20.sol\":763:968  function safeTransfer(... */\n    tag_86:\n        /* \"@openzeppelin/contracts/token/ERC20/utils/SafeERC20.sol\":902:960  abi.encodeWithSelector(token.transfer.selector, to, value) */\n      mload(0x40)\n      sub(shl(0xa0, 0x01), 0x01)\n        /* \"#utility.yul\":7055:7087   */\n      dup4\n      and\n        /* \"@openzeppelin/contracts/token/ERC20/utils/SafeERC20.sol\":902:960  abi.encodeWithSelector(token.transfer.selector, to, value) */\n      0x24\n      dup3\n      add\n        /* \"#utility.yul\":7037:7088   */\n      mstore\n        /* \"#utility.yul\":7104:7122   */\n      0x44\n      dup2\n      add\n        /* \"#utility.yul\":7097:7131   */\n      dup3\n      swap1\n      mstore\n        /* \"@openzeppelin/contracts/token/ERC20/utils/SafeERC20.sol\":875:961  _callOptionalReturn(token, abi.encodeWithSelector(token.transfer.selector, to, value)) */\n      tag_130\n      swap1\n        /* \"@openzeppelin/contracts/token/ERC20/utils/SafeERC20.sol\":895:900  token */\n      dup5\n      swap1\n      shl(0xe0, 0xa9059cbb)\n        /* \"@openzeppelin/contracts/token/ERC20/utils/SafeERC20.sol\":925:948  token.transfer.selector */\n      swap1\n        /* \"#utility.yul\":7010:7028   */\n      0x64\n      add\n        /* \"@openzeppelin/contracts/token/ERC20/utils/SafeERC20.sol\":902:960  abi.encodeWithSelector(token.transfer.selector, to, value) */\n    tag_131:\n      0x40\n      dup1\n      mload\n      not(0x1f)\n      dup2\n      dup5\n      sub\n      add\n      dup2\n      mstore\n      swap2\n      swap1\n      mstore\n      0x20\n      dup2\n      add\n      dup1\n      mload\n      sub(shl(0xe0, 0x01), 0x01)\n      and\n      not(sub(shl(0xe0, 0x01), 0x01))\n      swap1\n      swap4\n      and\n      swap3\n      swap1\n      swap3\n      or\n      swap1\n      swap2\n      mstore\n        /* \"@openzeppelin/contracts/token/ERC20/utils/SafeERC20.sol\":875:894  _callOptionalReturn */\n      tag_132\n        /* \"@openzeppelin/contracts/token/ERC20/utils/SafeERC20.sol\":875:961  _callOptionalReturn(token, abi.encodeWithSelector(token.transfer.selector, to, value)) */\n      jump\t// in\n    tag_130:\n        /* \"@openzeppelin/contracts/token/ERC20/utils/SafeERC20.sol\":763:968  function safeTransfer(... */\n      pop\n      pop\n      pop\n      jump\t// out\n        /* \"@openzeppelin/contracts/token/ERC20/utils/SafeERC20.sol\":974:1215  function safeTransferFrom(... */\n    tag_116:\n        /* \"@openzeppelin/contracts/token/ERC20/utils/SafeERC20.sol\":1139:1207  abi.encodeWithSelector(token.transferFrom.selector, from, to, value) */\n      mload(0x40)\n      sub(shl(0xa0, 0x01), 0x01)\n        /* \"#utility.yul\":7400:7415   */\n      dup1\n      dup6\n      and\n        /* \"@openzeppelin/contracts/token/ERC20/utils/SafeERC20.sol\":1139:1207  abi.encodeWithSelector(token.transferFrom.selector, from, to, value) */\n      0x24\n      dup4\n      add\n        /* \"#utility.yul\":7382:7416   */\n      mstore\n        /* \"#utility.yul\":7452:7467   */\n      dup4\n      and\n        /* \"#utility.yul\":7432:7450   */\n      0x44\n      dup3\n      add\n        /* \"#utility.yul\":7425:7468   */\n      mstore\n        /* \"#utility.yul\":7484:7502   */\n      0x64\n      dup2\n      add\n        /* \"#utility.yul\":7477:7511   */\n      dup3\n      swap1\n      mstore\n        /* \"@openzeppelin/contracts/token/ERC20/utils/SafeERC20.sol\":1112:1208  _callOptionalReturn(token, abi.encodeWithSelector(token.transferFrom.selector, from, to, value)) */\n      tag_134\n      swap1\n        /* \"@openzeppelin/contracts/token/ERC20/utils/SafeERC20.sol\":1132:1137  token */\n      dup6\n      swap1\n      shl(0xe0, 0x23b872dd)\n        /* \"@openzeppelin/contracts/token/ERC20/utils/SafeERC20.sol\":1162:1189  token.transferFrom.selector */\n      swap1\n        /* \"#utility.yul\":7317:7335   */\n      0x84\n      add\n        /* \"@openzeppelin/contracts/token/ERC20/utils/SafeERC20.sol\":1139:1207  abi.encodeWithSelector(token.transferFrom.selector, from, to, value) */\n      tag_131\n        /* \"#utility.yul\":7142:7517   */\n      jump\n        /* \"@openzeppelin/contracts/token/ERC20/utils/SafeERC20.sol\":1112:1208  _callOptionalReturn(token, abi.encodeWithSelector(token.transferFrom.selector, from, to, value)) */\n    tag_134:\n        /* \"@openzeppelin/contracts/token/ERC20/utils/SafeERC20.sol\":974:1215  function safeTransferFrom(... */\n      pop\n      pop\n      pop\n      pop\n      jump\t// out\n        /* \"@openzeppelin/contracts/token/ERC20/utils/SafeERC20.sol\":3747:4453  function _callOptionalReturn(IERC20 token, bytes memory data) private {... */\n    tag_132:\n        /* \"@openzeppelin/contracts/token/ERC20/utils/SafeERC20.sol\":4166:4189  bytes memory returndata */\n      0x00\n        /* \"@openzeppelin/contracts/token/ERC20/utils/SafeERC20.sol\":4192:4261  address(token).functionCall(data, \"SafeERC20: low-level call failed\") */\n      tag_138\n        /* \"@openzeppelin/contracts/token/ERC20/utils/SafeERC20.sol\":4220:4224  data */\n      dup3\n        /* \"@openzeppelin/contracts/token/ERC20/utils/SafeERC20.sol\":4192:4261  address(token).functionCall(data, \"SafeERC20: low-level call failed\") */\n      mload(0x40)\n      dup1\n      0x40\n      add\n      0x40\n      mstore\n      dup1\n      0x20\n      dup2\n      mstore\n      0x20\n      add\n      0x5361666545524332303a206c6f772d6c6576656c2063616c6c206661696c6564\n      dup2\n      mstore\n      pop\n        /* \"@openzeppelin/contracts/token/ERC20/utils/SafeERC20.sol\":4200:4205  token */\n      dup6\n      sub(shl(0xa0, 0x01), 0x01)\n        /* \"@openzeppelin/contracts/token/ERC20/utils/SafeERC20.sol\":4192:4219  address(token).functionCall */\n      and\n      tag_139\n      swap1\n        /* \"@openzeppelin/contracts/token/ERC20/utils/SafeERC20.sol\":4192:4261  address(token).functionCall(data, \"SafeERC20: low-level call failed\") */\n      swap3\n      swap2\n      swap1\n      0xffffffff\n      and\n      jump\t// in\n    tag_138:\n        /* \"@openzeppelin/contracts/token/ERC20/utils/SafeERC20.sol\":4275:4292  returndata.length */\n      dup1\n      mload\n        /* \"@openzeppelin/contracts/token/ERC20/utils/SafeERC20.sol\":4166:4261  bytes memory returndata = address(token).functionCall(data, \"SafeERC20: low-level call failed\") */\n      swap1\n      swap2\n      pop\n        /* \"@openzeppelin/contracts/token/ERC20/utils/SafeERC20.sol\":4275:4296  returndata.length > 0 */\n      iszero\n        /* \"@openzeppelin/contracts/token/ERC20/utils/SafeERC20.sol\":4271:4447  if (returndata.length > 0) {... */\n      tag_130\n      jumpi\n        /* \"@openzeppelin/contracts/token/ERC20/utils/SafeERC20.sol\":4370:4380  returndata */\n      dup1\n        /* \"@openzeppelin/contracts/token/ERC20/utils/SafeERC20.sol\":4359:4389  abi.decode(returndata, (bool)) */\n      dup1\n      0x20\n      add\n      swap1\n      mload\n      dup2\n      add\n      swap1\n      tag_141\n      swap2\n      swap1\n      tag_142\n      jump\t// in\n    tag_141:\n        /* \"@openzeppelin/contracts/token/ERC20/utils/SafeERC20.sol\":4351:4436  require(abi.decode(returndata, (bool)), \"SafeERC20: ERC20 operation did not succeed\") */\n      tag_130\n      jumpi\n      mload(0x40)\n      shl(0xe5, 0x461bcd)\n      dup2\n      mstore\n        /* \"#utility.yul\":8006:8008   */\n      0x20\n        /* \"@openzeppelin/contracts/token/ERC20/utils/SafeERC20.sol\":4351:4436  require(abi.decode(returndata, (bool)), \"SafeERC20: ERC20 operation did not succeed\") */\n      0x04\n      dup3\n      add\n        /* \"#utility.yul\":7988:8009   */\n      mstore\n        /* \"#utility.yul\":8045:8047   */\n      0x2a\n        /* \"#utility.yul\":8025:8043   */\n      0x24\n      dup3\n      add\n        /* \"#utility.yul\":8018:8048   */\n      mstore\n        /* \"#utility.yul\":8084:8118   */\n      0x5361666545524332303a204552433230206f7065726174696f6e20646964206e\n        /* \"#utility.yul\":8064:8082   */\n      0x44\n      dup3\n      add\n        /* \"#utility.yul\":8057:8119   */\n      mstore\n      shl(0xb2, 0x1bdd081cdd58d8d95959)\n        /* \"#utility.yul\":8135:8153   */\n      0x64\n      dup3\n      add\n        /* \"#utility.yul\":8128:8168   */\n      mstore\n        /* \"#utility.yul\":8185:8204   */\n      0x84\n      add\n        /* \"@openzeppelin/contracts/token/ERC20/utils/SafeERC20.sol\":4351:4436  require(abi.decode(returndata, (bool)), \"SafeERC20: ERC20 operation did not succeed\") */\n      tag_44\n        /* \"#utility.yul\":7804:8210   */\n      jump\n        /* \"@openzeppelin/contracts/utils/Address.sol\":3873:4096  function functionCall(... */\n    tag_139:\n        /* \"@openzeppelin/contracts/utils/Address.sol\":4006:4018  bytes memory */\n      0x60\n        /* \"@openzeppelin/contracts/utils/Address.sol\":4037:4089  functionCallWithValue(target, data, 0, errorMessage) */\n      tag_147\n        /* \"@openzeppelin/contracts/utils/Address.sol\":4059:4065  target */\n      dup5\n        /* \"@openzeppelin/contracts/utils/Address.sol\":4067:4071  data */\n      dup5\n        /* \"@openzeppelin/contracts/utils/Address.sol\":4073:4074  0 */\n      0x00\n        /* \"@openzeppelin/contracts/utils/Address.sol\":4076:4088  errorMessage */\n      dup6\n        /* \"@openzeppelin/contracts/utils/Address.sol\":4037:4058  functionCallWithValue */\n      tag_148\n        /* \"@openzeppelin/contracts/utils/Address.sol\":4037:4089  functionCallWithValue(target, data, 0, errorMessage) */\n      jump\t// in\n    tag_147:\n        /* \"@openzeppelin/contracts/utils/Address.sol\":4030:4089  return functionCallWithValue(target, data, 0, errorMessage) */\n      swap5\n        /* \"@openzeppelin/contracts/utils/Address.sol\":3873:4096  function functionCall(... */\n      swap4\n      pop\n      pop\n      pop\n      pop\n      jump\t// out\n        /* \"@openzeppelin/contracts/utils/Address.sol\":4960:5406  function functionCallWithValue(... */\n    tag_148:\n        /* \"@openzeppelin/contracts/utils/Address.sol\":5125:5137  bytes memory */\n      0x60\n        /* \"@openzeppelin/contracts/utils/Address.sol\":5182:5187  value */\n      dup3\n        /* \"@openzeppelin/contracts/utils/Address.sol\":5157:5178  address(this).balance */\n      selfbalance\n        /* \"@openzeppelin/contracts/utils/Address.sol\":5157:5187  address(this).balance >= value */\n      lt\n      iszero\n        /* \"@openzeppelin/contracts/utils/Address.sol\":5149:5230  require(address(this).balance >= value, \"Address: insufficient balance for call\") */\n      tag_150\n      jumpi\n      mload(0x40)\n      shl(0xe5, 0x461bcd)\n      dup2\n      mstore\n        /* \"#utility.yul\":8417:8419   */\n      0x20\n        /* \"@openzeppelin/contracts/utils/Address.sol\":5149:5230  require(address(this).balance >= value, \"Address: insufficient balance for call\") */\n      0x04\n      dup3\n      add\n        /* \"#utility.yul\":8399:8420   */\n      mstore\n        /* \"#utility.yul\":8456:8458   */\n      0x26\n        /* \"#utility.yul\":8436:8454   */\n      0x24\n      dup3\n      add\n        /* \"#utility.yul\":8429:8459   */\n      mstore\n        /* \"#utility.yul\":8495:8529   */\n      0x416464726573733a20696e73756666696369656e742062616c616e636520666f\n        /* \"#utility.yul\":8475:8493   */\n      0x44\n      dup3\n      add\n        /* \"#utility.yul\":8468:8530   */\n      mstore\n      shl(0xd2, 0x1c8818d85b1b)\n        /* \"#utility.yul\":8546:8564   */\n      0x64\n      dup3\n      add\n        /* \"#utility.yul\":8539:8575   */\n      mstore\n        /* \"#utility.yul\":8592:8611   */\n      0x84\n      add\n        /* \"@openzeppelin/contracts/utils/Address.sol\":5149:5230  require(address(this).balance >= value, \"Address: insufficient balance for call\") */\n      tag_44\n        /* \"#utility.yul\":8215:8617   */\n      jump\n        /* \"@openzeppelin/contracts/utils/Address.sol\":5149:5230  require(address(this).balance >= value, \"Address: insufficient balance for call\") */\n    tag_150:\n        /* \"@openzeppelin/contracts/utils/Address.sol\":5241:5253  bool success */\n      0x00\n        /* \"@openzeppelin/contracts/utils/Address.sol\":5255:5278  bytes memory returndata */\n      dup1\n        /* \"@openzeppelin/contracts/utils/Address.sol\":5282:5288  target */\n      dup7\n      sub(shl(0xa0, 0x01), 0x01)\n        /* \"@openzeppelin/contracts/utils/Address.sol\":5282:5293  target.call */\n      and\n        /* \"@openzeppelin/contracts/utils/Address.sol\":5301:5306  value */\n      dup6\n        /* \"@openzeppelin/contracts/utils/Address.sol\":5308:5312  data */\n      dup8\n        /* \"@openzeppelin/contracts/utils/Address.sol\":5282:5313  target.call{value: value}(data) */\n      mload(0x40)\n      tag_153\n      swap2\n      swap1\n      tag_154\n      jump\t// in\n    tag_153:\n      0x00\n      mload(0x40)\n      dup1\n      dup4\n      sub\n      dup2\n      dup6\n      dup8\n      gas\n      call\n      swap3\n      pop\n      pop\n      pop\n      returndatasize\n      dup1\n      0x00\n      dup2\n      eq\n      tag_157\n      jumpi\n      mload(0x40)\n      swap2\n      pop\n      and(add(returndatasize, 0x3f), not(0x1f))\n      dup3\n      add\n      0x40\n      mstore\n      returndatasize\n      dup3\n      mstore\n      returndatasize\n      0x00\n      0x20\n      dup5\n      add\n      returndatacopy\n      jump(tag_156)\n    tag_157:\n      0x60\n      swap2\n      pop\n    tag_156:\n      pop\n        /* \"@openzeppelin/contracts/utils/Address.sol\":5240:5313  (bool success, bytes memory returndata) = target.call{value: value}(data) */\n      swap2\n      pop\n      swap2\n      pop\n        /* \"@openzeppelin/contracts/utils/Address.sol\":5330:5399  verifyCallResultFromTarget(target, success, returndata, errorMessage) */\n      tag_158\n        /* \"@openzeppelin/contracts/utils/Address.sol\":5357:5363  target */\n      dup8\n        /* \"@openzeppelin/contracts/utils/Address.sol\":5365:5372  success */\n      dup4\n        /* \"@openzeppelin/contracts/utils/Address.sol\":5374:5384  returndata */\n      dup4\n        /* \"@openzeppelin/contracts/utils/Address.sol\":5386:5398  errorMessage */\n      dup8\n        /* \"@openzeppelin/contracts/utils/Address.sol\":5330:5356  verifyCallResultFromTarget */\n      tag_159\n        /* \"@openzeppelin/contracts/utils/Address.sol\":5330:5399  verifyCallResultFromTarget(target, success, returndata, errorMessage) */\n      jump\t// in\n    tag_158:\n        /* \"@openzeppelin/contracts/utils/Address.sol\":5323:5399  return verifyCallResultFromTarget(target, success, returndata, errorMessage) */\n      swap8\n        /* \"@openzeppelin/contracts/utils/Address.sol\":4960:5406  function functionCallWithValue(... */\n      swap7\n      pop\n      pop\n      pop\n      pop\n      pop\n      pop\n      pop\n      jump\t// out\n        /* \"@openzeppelin/contracts/utils/Address.sol\":7466:8094  function verifyCallResultFromTarget(... */\n    tag_159:\n        /* \"@openzeppelin/contracts/utils/Address.sol\":7646:7658  bytes memory */\n      0x60\n        /* \"@openzeppelin/contracts/utils/Address.sol\":7674:7681  success */\n      dup4\n        /* \"@openzeppelin/contracts/utils/Address.sol\":7670:8088  if (success) {... */\n      iszero\n      tag_161\n      jumpi\n        /* \"@openzeppelin/contracts/utils/Address.sol\":7701:7711  returndata */\n      dup3\n        /* \"@openzeppelin/contracts/utils/Address.sol\":7701:7718  returndata.length */\n      mload\n        /* \"@openzeppelin/contracts/utils/Address.sol\":7722:7723  0 */\n      0x00\n        /* \"@openzeppelin/contracts/utils/Address.sol\":7701:7723  returndata.length == 0 */\n      sub\n        /* \"@openzeppelin/contracts/utils/Address.sol\":7697:7983  if (returndata.length == 0) {... */\n      tag_164\n      jumpi\n      sub(shl(0xa0, 0x01), 0x01)\n        /* \"@openzeppelin/contracts/utils/Address.sol\":1465:1484  account.code.length */\n      dup6\n      and\n      extcodesize\n        /* \"@openzeppelin/contracts/utils/Address.sol\":7908:7968  require(isContract(target), \"Address: call to non-contract\") */\n      tag_164\n      jumpi\n      mload(0x40)\n      shl(0xe5, 0x461bcd)\n      dup2\n      mstore\n        /* \"#utility.yul\":9371:9373   */\n      0x20\n        /* \"@openzeppelin/contracts/utils/Address.sol\":7908:7968  require(isContract(target), \"Address: call to non-contract\") */\n      0x04\n      dup3\n      add\n        /* \"#utility.yul\":9353:9374   */\n      mstore\n        /* \"#utility.yul\":9410:9412   */\n      0x1d\n        /* \"#utility.yul\":9390:9408   */\n      0x24\n      dup3\n      add\n        /* \"#utility.yul\":9383:9413   */\n      mstore\n        /* \"#utility.yul\":9449:9480   */\n      0x416464726573733a2063616c6c20746f206e6f6e2d636f6e7472616374000000\n        /* \"#utility.yul\":9429:9447   */\n      0x44\n      dup3\n      add\n        /* \"#utility.yul\":9422:9481   */\n      mstore\n        /* \"#utility.yul\":9498:9516   */\n      0x64\n      add\n        /* \"@openzeppelin/contracts/utils/Address.sol\":7908:7968  require(isContract(target), \"Address: call to non-contract\") */\n      tag_44\n        /* \"#utility.yul\":9169:9522   */\n      jump\n        /* \"@openzeppelin/contracts/utils/Address.sol\":7908:7968  require(isContract(target), \"Address: call to non-contract\") */\n    tag_164:\n      pop\n        /* \"@openzeppelin/contracts/utils/Address.sol\":8003:8013  returndata */\n      dup2\n        /* \"@openzeppelin/contracts/utils/Address.sol\":7996:8013  return returndata */\n      jump(tag_147)\n        /* \"@openzeppelin/contracts/utils/Address.sol\":7670:8088  if (success) {... */\n    tag_161:\n        /* \"@openzeppelin/contracts/utils/Address.sol\":8044:8077  _revert(returndata, errorMessage) */\n      tag_147\n        /* \"@openzeppelin/contracts/utils/Address.sol\":8052:8062  returndata */\n      dup4\n        /* \"@openzeppelin/contracts/utils/Address.sol\":8064:8076  errorMessage */\n      dup4\n        /* \"@openzeppelin/contracts/utils/Address.sol\":8775:8792  returndata.length */\n      dup2\n      mload\n        /* \"@openzeppelin/contracts/utils/Address.sol\":8775:8796  returndata.length > 0 */\n      iszero\n        /* \"@openzeppelin/contracts/utils/Address.sol\":8771:9150  if (returndata.length > 0) {... */\n      tag_171\n      jumpi\n        /* \"@openzeppelin/contracts/utils/Address.sol\":9003:9013  returndata */\n      dup2\n        /* \"@openzeppelin/contracts/utils/Address.sol\":8997:9014  mload(returndata) */\n      mload\n        /* \"@openzeppelin/contracts/utils/Address.sol\":9059:9074  returndata_size */\n      dup1\n        /* \"@openzeppelin/contracts/utils/Address.sol\":9046:9056  returndata */\n      dup4\n        /* \"@openzeppelin/contracts/utils/Address.sol\":9042:9044  32 */\n      0x20\n        /* \"@openzeppelin/contracts/utils/Address.sol\":9038:9057  add(32, returndata) */\n      add\n        /* \"@openzeppelin/contracts/utils/Address.sol\":9031:9075  revert(add(32, returndata), returndata_size) */\n      revert\n        /* \"@openzeppelin/contracts/utils/Address.sol\":8771:9150  if (returndata.length > 0) {... */\n    tag_171:\n        /* \"@openzeppelin/contracts/utils/Address.sol\":9126:9138  errorMessage */\n      dup1\n        /* \"@openzeppelin/contracts/utils/Address.sol\":9119:9139  revert(errorMessage) */\n      mload(0x40)\n      shl(0xe5, 0x461bcd)\n      dup2\n      mstore\n      0x04\n      add\n      tag_44\n      swap2\n      swap1\n      tag_174\n      jump\t// in\n        /* \"#utility.yul\":14:187   */\n    tag_175:\n        /* \"#utility.yul\":82:102   */\n      dup1\n      calldataload\n      sub(shl(0xa0, 0x01), 0x01)\n        /* \"#utility.yul\":131:162   */\n      dup2\n      and\n        /* \"#utility.yul\":121:163   */\n      dup2\n      eq\n        /* \"#utility.yul\":111:181   */\n      tag_180\n      jumpi\n        /* \"#utility.yul\":177:178   */\n      0x00\n        /* \"#utility.yul\":174:175   */\n      dup1\n        /* \"#utility.yul\":167:179   */\n      revert\n        /* \"#utility.yul\":111:181   */\n    tag_180:\n        /* \"#utility.yul\":14:187   */\n      swap2\n      swap1\n      pop\n      jump\t// out\n        /* \"#utility.yul\":192:378   */\n    tag_13:\n        /* \"#utility.yul\":251:257   */\n      0x00\n        /* \"#utility.yul\":304:306   */\n      0x20\n        /* \"#utility.yul\":292:301   */\n      dup3\n        /* \"#utility.yul\":283:290   */\n      dup5\n        /* \"#utility.yul\":279:302   */\n      sub\n        /* \"#utility.yul\":275:307   */\n      slt\n        /* \"#utility.yul\":272:324   */\n      iszero\n      tag_182\n      jumpi\n        /* \"#utility.yul\":320:321   */\n      0x00\n        /* \"#utility.yul\":317:318   */\n      dup1\n        /* \"#utility.yul\":310:322   */\n      revert\n        /* \"#utility.yul\":272:324   */\n    tag_182:\n        /* \"#utility.yul\":343:372   */\n      tag_183\n        /* \"#utility.yul\":362:371   */\n      dup3\n        /* \"#utility.yul\":343:372   */\n      tag_175\n      jump\t// in\n    tag_183:\n        /* \"#utility.yul\":333:372   */\n      swap4\n        /* \"#utility.yul\":192:378   */\n      swap3\n      pop\n      pop\n      pop\n      jump\t// out\n        /* \"#utility.yul\":383:563   */\n    tag_17:\n        /* \"#utility.yul\":442:448   */\n      0x00\n        /* \"#utility.yul\":495:497   */\n      0x20\n        /* \"#utility.yul\":483:492   */\n      dup3\n        /* \"#utility.yul\":474:481   */\n      dup5\n        /* \"#utility.yul\":470:493   */\n      sub\n        /* \"#utility.yul\":466:498   */\n      slt\n        /* \"#utility.yul\":463:515   */\n      iszero\n      tag_185\n      jumpi\n        /* \"#utility.yul\":511:512   */\n      0x00\n        /* \"#utility.yul\":508:509   */\n      dup1\n        /* \"#utility.yul\":501:513   */\n      revert\n        /* \"#utility.yul\":463:515   */\n    tag_185:\n      pop\n        /* \"#utility.yul\":534:557   */\n      calldataload\n      swap2\n        /* \"#utility.yul\":383:563   */\n      swap1\n      pop\n      jump\t// out\n        /* \"#utility.yul\":999:1321   */\n    tag_40:\n        /* \"#utility.yul\":1076:1082   */\n      0x00\n        /* \"#utility.yul\":1084:1090   */\n      dup1\n        /* \"#utility.yul\":1092:1098   */\n      0x00\n        /* \"#utility.yul\":1145:1147   */\n      0x60\n        /* \"#utility.yul\":1133:1142   */\n      dup5\n        /* \"#utility.yul\":1124:1131   */\n      dup7\n        /* \"#utility.yul\":1120:1143   */\n      sub\n        /* \"#utility.yul\":1116:1148   */\n      slt\n        /* \"#utility.yul\":1113:1165   */\n      iszero\n      tag_189\n      jumpi\n        /* \"#utility.yul\":1161:1162   */\n      0x00\n        /* \"#utility.yul\":1158:1159   */\n      dup1\n        /* \"#utility.yul\":1151:1163   */\n      revert\n        /* \"#utility.yul\":1113:1165   */\n    tag_189:\n        /* \"#utility.yul\":1184:1213   */\n      tag_190\n        /* \"#utility.yul\":1203:1212   */\n      dup5\n        /* \"#utility.yul\":1184:1213   */\n      tag_175\n      jump\t// in\n    tag_190:\n        /* \"#utility.yul\":1174:1213   */\n      swap6\n        /* \"#utility.yul\":1260:1262   */\n      0x20\n        /* \"#utility.yul\":1245:1263   */\n      dup6\n      add\n        /* \"#utility.yul\":1232:1264   */\n      calldataload\n      swap6\n      pop\n        /* \"#utility.yul\":1311:1313   */\n      0x40\n        /* \"#utility.yul\":1296:1314   */\n      swap1\n      swap5\n      add\n        /* \"#utility.yul\":1283:1315   */\n      calldataload\n      swap4\n        /* \"#utility.yul\":999:1321   */\n      swap3\n      pop\n      pop\n      pop\n      jump\t// out\n        /* \"#utility.yul\":3555:4155   */\n    tag_73:\n      sub(shl(0xa0, 0x01), 0x01)\n        /* \"#utility.yul\":3898:3913   */\n      swap7\n      dup8\n      and\n        /* \"#utility.yul\":3880:3914   */\n      dup2\n      mstore\n        /* \"#utility.yul\":3950:3965   */\n      swap5\n      dup7\n      and\n        /* \"#utility.yul\":3945:3947   */\n      0x20\n        /* \"#utility.yul\":3930:3948   */\n      dup7\n      add\n        /* \"#utility.yul\":3923:3966   */\n      mstore\n        /* \"#utility.yul\":4002:4017   */\n      swap3\n      swap1\n      swap5\n      and\n        /* \"#utility.yul\":3997:3999   */\n      0x40\n        /* \"#utility.yul\":3982:4000   */\n      dup5\n      add\n        /* \"#utility.yul\":3975:4018   */\n      mstore\n        /* \"#utility.yul\":4049:4051   */\n      0x60\n        /* \"#utility.yul\":4034:4052   */\n      dup4\n      add\n        /* \"#utility.yul\":4027:4061   */\n      mstore\n        /* \"#utility.yul\":4092:4095   */\n      0x80\n        /* \"#utility.yul\":4077:4096   */\n      dup3\n      add\n        /* \"#utility.yul\":4070:4105   */\n      swap3\n      swap1\n      swap3\n      mstore\n        /* \"#utility.yul\":3860:3863   */\n      0xa0\n        /* \"#utility.yul\":4121:4140   */\n      dup2\n      add\n        /* \"#utility.yul\":4114:4149   */\n      swap2\n      swap1\n      swap2\n      mstore\n        /* \"#utility.yul\":3829:3832   */\n      0xc0\n        /* \"#utility.yul\":3814:3833   */\n      add\n      swap1\n        /* \"#utility.yul\":3555:4155   */\n      jump\t// out\n        /* \"#utility.yul\":6428:6555   */\n    tag_176:\n        /* \"#utility.yul\":6489:6499   */\n      0x4e487b71\n        /* \"#utility.yul\":6484:6487   */\n      0xe0\n        /* \"#utility.yul\":6480:6500   */\n      shl\n        /* \"#utility.yul\":6477:6478   */\n      0x00\n        /* \"#utility.yul\":6470:6501   */\n      mstore\n        /* \"#utility.yul\":6520:6524   */\n      0x11\n        /* \"#utility.yul\":6517:6518   */\n      0x04\n        /* \"#utility.yul\":6510:6525   */\n      mstore\n        /* \"#utility.yul\":6544:6548   */\n      0x24\n        /* \"#utility.yul\":6541:6542   */\n      0x00\n        /* \"#utility.yul\":6534:6549   */\n      revert\n        /* \"#utility.yul\":6560:6728   */\n    tag_122:\n        /* \"#utility.yul\":6633:6642   */\n      dup1\n      dup3\n      mul\n        /* \"#utility.yul\":6664:6673   */\n      dup2\n      iszero\n        /* \"#utility.yul\":6681:6696   */\n      dup3\n      dup3\n      div\n        /* \"#utility.yul\":6675:6697   */\n      dup5\n      eq\n        /* \"#utility.yul\":6661:6698   */\n      or\n        /* \"#utility.yul\":6651:6722   */\n      tag_123\n      jumpi\n        /* \"#utility.yul\":6702:6720   */\n      tag_123\n      tag_176\n      jump\t// in\n        /* \"#utility.yul\":6733:6858   */\n    tag_124:\n        /* \"#utility.yul\":6798:6807   */\n      dup1\n      dup3\n      add\n        /* \"#utility.yul\":6819:6829   */\n      dup1\n      dup3\n      gt\n        /* \"#utility.yul\":6816:6852   */\n      iszero\n      tag_123\n      jumpi\n        /* \"#utility.yul\":6832:6850   */\n      tag_123\n      tag_176\n      jump\t// in\n        /* \"#utility.yul\":7522:7799   */\n    tag_142:\n        /* \"#utility.yul\":7589:7595   */\n      0x00\n        /* \"#utility.yul\":7642:7644   */\n      0x20\n        /* \"#utility.yul\":7630:7639   */\n      dup3\n        /* \"#utility.yul\":7621:7628   */\n      dup5\n        /* \"#utility.yul\":7617:7640   */\n      sub\n        /* \"#utility.yul\":7613:7645   */\n      slt\n        /* \"#utility.yul\":7610:7662   */\n      iszero\n      tag_214\n      jumpi\n        /* \"#utility.yul\":7658:7659   */\n      0x00\n        /* \"#utility.yul\":7655:7656   */\n      dup1\n        /* \"#utility.yul\":7648:7660   */\n      revert\n        /* \"#utility.yul\":7610:7662   */\n    tag_214:\n        /* \"#utility.yul\":7690:7699   */\n      dup2\n        /* \"#utility.yul\":7684:7700   */\n      mload\n        /* \"#utility.yul\":7743:7748   */\n      dup1\n        /* \"#utility.yul\":7736:7749   */\n      iszero\n        /* \"#utility.yul\":7729:7750   */\n      iszero\n        /* \"#utility.yul\":7722:7727   */\n      dup2\n        /* \"#utility.yul\":7719:7751   */\n      eq\n        /* \"#utility.yul\":7709:7769   */\n      tag_183\n      jumpi\n        /* \"#utility.yul\":7765:7766   */\n      0x00\n        /* \"#utility.yul\":7762:7763   */\n      dup1\n        /* \"#utility.yul\":7755:7767   */\n      revert\n        /* \"#utility.yul\":8622:8872   */\n    tag_177:\n        /* \"#utility.yul\":8707:8708   */\n      0x00\n        /* \"#utility.yul\":8717:8830   */\n    tag_219:\n        /* \"#utility.yul\":8731:8737   */\n      dup4\n        /* \"#utility.yul\":8728:8729   */\n      dup2\n        /* \"#utility.yul\":8725:8738   */\n      lt\n        /* \"#utility.yul\":8717:8830   */\n      iszero\n      tag_221\n      jumpi\n        /* \"#utility.yul\":8807:8818   */\n      dup2\n      dup2\n      add\n        /* \"#utility.yul\":8801:8819   */\n      mload\n        /* \"#utility.yul\":8788:8799   */\n      dup4\n      dup3\n      add\n        /* \"#utility.yul\":8781:8820   */\n      mstore\n        /* \"#utility.yul\":8753:8755   */\n      0x20\n        /* \"#utility.yul\":8746:8756   */\n      add\n        /* \"#utility.yul\":8717:8830   */\n      jump(tag_219)\n    tag_221:\n      pop\n      pop\n        /* \"#utility.yul\":8864:8865   */\n      0x00\n        /* \"#utility.yul\":8846:8862   */\n      swap2\n      add\n        /* \"#utility.yul\":8839:8866   */\n      mstore\n        /* \"#utility.yul\":8622:8872   */\n      jump\t// out\n        /* \"#utility.yul\":8877:9164   */\n    tag_154:\n        /* \"#utility.yul\":9006:9009   */\n      0x00\n        /* \"#utility.yul\":9044:9050   */\n      dup3\n        /* \"#utility.yul\":9038:9051   */\n      mload\n        /* \"#utility.yul\":9060:9126   */\n      tag_223\n        /* \"#utility.yul\":9119:9125   */\n      dup2\n        /* \"#utility.yul\":9114:9117   */\n      dup5\n        /* \"#utility.yul\":9107:9111   */\n      0x20\n        /* \"#utility.yul\":9099:9105   */\n      dup8\n        /* \"#utility.yul\":9095:9112   */\n      add\n        /* \"#utility.yul\":9060:9126   */\n      tag_177\n      jump\t// in\n    tag_223:\n        /* \"#utility.yul\":9142:9158   */\n      swap2\n      swap1\n      swap2\n      add\n      swap3\n        /* \"#utility.yul\":8877:9164   */\n      swap2\n      pop\n      pop\n      jump\t// out\n        /* \"#utility.yul\":9527:9923   */\n    tag_174:\n        /* \"#utility.yul\":9676:9678   */\n      0x20\n        /* \"#utility.yul\":9665:9674   */\n      dup2\n        /* \"#utility.yul\":9658:9679   */\n      mstore\n        /* \"#utility.yul\":9639:9643   */\n      0x00\n        /* \"#utility.yul\":9708:9714   */\n      dup3\n        /* \"#utility.yul\":9702:9715   */\n      mload\n        /* \"#utility.yul\":9751:9757   */\n      dup1\n        /* \"#utility.yul\":9746:9748   */\n      0x20\n        /* \"#utility.yul\":9735:9744   */\n      dup5\n        /* \"#utility.yul\":9731:9749   */\n      add\n        /* \"#utility.yul\":9724:9758   */\n      mstore\n        /* \"#utility.yul\":9767:9846   */\n      tag_226\n        /* \"#utility.yul\":9839:9845   */\n      dup2\n        /* \"#utility.yul\":9834:9836   */\n      0x40\n        /* \"#utility.yul\":9823:9832   */\n      dup6\n        /* \"#utility.yul\":9819:9837   */\n      add\n        /* \"#utility.yul\":9814:9816   */\n      0x20\n        /* \"#utility.yul\":9806:9812   */\n      dup8\n        /* \"#utility.yul\":9802:9817   */\n      add\n        /* \"#utility.yul\":9767:9846   */\n      tag_177\n      jump\t// in\n    tag_226:\n        /* \"#utility.yul\":9907:9909   */\n      0x1f\n        /* \"#utility.yul\":9886:9901   */\n      add\n      not(0x1f)\n        /* \"#utility.yul\":9882:9911   */\n      and\n        /* \"#utility.yul\":9867:9912   */\n      swap2\n      swap1\n      swap2\n      add\n        /* \"#utility.yul\":9914:9916   */\n      0x40\n        /* \"#utility.yul\":9863:9917   */\n      add\n      swap3\n        /* \"#utility.yul\":9527:9923   */\n      swap2\n      pop\n      pop\n      jump\t// out\n\n    auxdata: 0xa2646970667358221220408fd667003e2e50ecd306569a6d4dc1e4c3503ab290cc8c1606cdfc8e17fc3e64736f6c63430008110033\n}\n",
				"bytecode": {
					"linkReferences": {},
					"object": "608060405234801561001057600080fd5b50600080546001600160a01b03191633179055600180546001600160801b0319169055611033806100426000396000f3fe6080604052600436106100705760003560e01c806361bc221a1161004e57806361bc221a146100ca5780638da5cb5b14610107578063d48bfca71461013f578063e88fdde11461015f57600080fd5b806304562d951461007557806326839f171461009757806351cff8d9146100aa575b600080fd5b34801561008157600080fd5b50610095610090366004610e81565b61017f565b005b6100956100a5366004610ea3565b61029b565b3480156100b657600080fd5b506100956100c5366004610e81565b610522565b3480156100d657600080fd5b506001546100ea906001600160801b031681565b6040516001600160801b0390911681526020015b60405180910390f35b34801561011357600080fd5b50600054610127906001600160a01b031681565b6040516001600160a01b0390911681526020016100fe565b34801561014b57600080fd5b5061009561015a366004610e81565b610720565b34801561016b57600080fd5b5061009561017a366004610ebc565b6107d4565b6001600160a01b03811660009081526004602052604090205460ff166101ec5760405162461bcd60e51b815260206004820152601f60248201527f686173206e6f742072656365697074206f7220616c726561647920647261770060448201526064015b60405180910390fd5b6001600160a01b03818116600090815260036020818152604092839020835160a081018552815486168082526001830154909616818401819052600283015482870181905294830154606080840182905260049094015460ff16151560808085019190915287519889529488019190915294860193909352840192909252917f61e77266757765643421177bf69b869dcc2ed16c3ee15aa4accab69b23c4aa1e91015b60405180910390a15050565b33803b156102eb5760405162461bcd60e51b815260206004820152601c60248201527f6e6f7420737570706f727420636f6e747261637420616464726573730000000060448201526064016101e3565b816000811180156102fe5750610e428111155b61034a5760405162461bcd60e51b815260206004820152601e60248201527f6c6f636b4461797320697320746f6f206c61726765206f7220736d616c6c000060448201526064016101e3565b6000341161038e5760405162461bcd60e51b81526020600482015260116024820152700657468657220616d6f756e74203c3d203607c1b60448201526064016101e3565b610396610ac9565b60006103a184610af5565b6040805160a08101825233815260006020820181905234928201929092526060810183905260016080820181905254929350916103e89083906001600160801b0316610b15565b6001600160a01b03811660009081526004602052604090205490915060ff16156104545760405162461bcd60e51b815260206004820152601a60248201527f73616d652072656365697074206b657920636f6c6c6973696f6e00000000000060448201526064016101e3565b6001600160a01b038082166000908152600360208181526040808420875181549087166001600160a01b0319918216178255838901516001808401805492909916919092161790965581880151600282015560608801519381019390935560808701516004938401805491151560ff19928316179055929091528083208054909216909317905590517f76fbc6746f9766ec8a8dc297122a14d120cc5fc43cd3f389031392fd382a236e91610512918491339134908c908a90610eef565b60405180910390a1505050505050565b6001600160a01b03811660009081526004602052604090205460ff1661057d5760405162461bcd60e51b815260206004820152601060248201526f1b9bc81d985b1a59081c9958d95a5c1d60821b60448201526064016101e3565b6001600160a01b0381166000908152600360208190526040909120015442116105e85760405162461bcd60e51b815260206004820152601760248201527f756e6c6f636b2074696d65206e6f74207265616368656400000000000000000060448201526064016101e3565b6001600160a01b038082166000908152600460208181526040808420805460ff19169055600380835293819020815160a081018352815487168152600182015490961692860192909252600282015490850152918201546060840152015460ff16158015608083015261069857805160408083015190516001600160a01b039092169181156108fc0291906000818181858888f19350505050158015610692573d6000803e3d6000fd5b506106b9565b8051604082015160208301516106b9926001600160a01b0390911691610b5d565b805160208083015160408085015181516001600160a01b03808916825295861694810194909452939091169082015260608101919091524260808201527ffbde797d201c681b91056529119e0b02407c7bb96a4a2c75c01fc9667232c8db9060a00161028f565b6000546001600160a01b0316331461077a5760405162461bcd60e51b815260206004820152601960248201527f6f6e6c79206f776e65722063616e2061646420746f6b656e730000000000000060448201526064016101e3565b6001600160a01b038116600081815260026020908152604091829020805460ff1916600117905590519182527fe473c74f34be27c1464d6624f14a0d7fd4e301cbfa29c3eba425d378c8a7ebe0910160405180910390a150565b6001600160a01b038316600090815260026020526040902054839060ff166108305760405162461bcd60e51b815260206004820152600f60248201526e3737ba103632b3b0b6103a37b5b2b760891b60448201526064016101e3565b33803b156108805760405162461bcd60e51b815260206004820152601c60248201527f6e6f7420737570706f727420636f6e747261637420616464726573730000000060448201526064016101e3565b826000811180156108935750610e428111155b6108df5760405162461bcd60e51b815260206004820152601e60248201527f6c6f636b4461797320697320746f6f206c61726765206f7220736d616c6c000060448201526064016101e3565b6000851161091d5760405162461bcd60e51b815260206004820152600b60248201526a0616d6f756e74203c3d20360ac1b60448201526064016101e3565b610925610ac9565b600061093085610af5565b6040805160a0810182523381526001600160a01b038a16602082015290810188905260608101829052600060808201819052600154929350909161097e9083906001600160801b0316610b15565b6001600160a01b03811660009081526004602052604090205490915060ff16156109ea5760405162461bcd60e51b815260206004820152601a60248201527f73616d652072656365697074206b657920636f6c6c6973696f6e00000000000060448201526064016101e3565b6001600160a01b038082166000908152600360208181526040808420875181549087166001600160a01b03199182161782558389015160018084018054928a16929093169190911790915582890151600283015560608901519482019490945560808801516004918201805491151560ff1992831617905592529092208054909216179055610a7d908a1633308b610bc5565b7f76fbc6746f9766ec8a8dc297122a14d120cc5fc43cd3f389031392fd382a236e81338b8b8b88604051610ab696959493929190610eef565b60405180910390a1505050505050505050565b600180546001600160801b038082168301166fffffffffffffffffffffffffffffffff19909116179055565b600042610b058362015180610f3e565b610b0f9190610f55565b92915050565b8151600090610b244284610f55565b604080516001600160a01b03909316602084015282015260600160408051601f1981840301815291905280516020909101209392505050565b6040516001600160a01b038316602482015260448101829052610bc090849063a9059cbb60e01b906064015b60408051601f198184030181529190526020810180516001600160e01b03166001600160e01b031990931692909217909152610c03565b505050565b6040516001600160a01b0380851660248301528316604482015260648101829052610bfd9085906323b872dd60e01b90608401610b89565b50505050565b6000610c58826040518060400160405280602081526020017f5361666545524332303a206c6f772d6c6576656c2063616c6c206661696c6564815250856001600160a01b0316610cd59092919063ffffffff16565b805190915015610bc05780806020019051810190610c769190610f68565b610bc05760405162461bcd60e51b815260206004820152602a60248201527f5361666545524332303a204552433230206f7065726174696f6e20646964206e6044820152691bdd081cdd58d8d9595960b21b60648201526084016101e3565b6060610ce48484600085610cec565b949350505050565b606082471015610d4d5760405162461bcd60e51b815260206004820152602660248201527f416464726573733a20696e73756666696369656e742062616c616e636520666f6044820152651c8818d85b1b60d21b60648201526084016101e3565b600080866001600160a01b03168587604051610d699190610fae565b60006040518083038185875af1925050503d8060008114610da6576040519150601f19603f3d011682016040523d82523d6000602084013e610dab565b606091505b5091509150610dbc87838387610dc7565b979650505050505050565b60608315610e36578251600003610e2f576001600160a01b0385163b610e2f5760405162461bcd60e51b815260206004820152601d60248201527f416464726573733a2063616c6c20746f206e6f6e2d636f6e747261637400000060448201526064016101e3565b5081610ce4565b610ce48383815115610e4b5781518083602001fd5b8060405162461bcd60e51b81526004016101e39190610fca565b80356001600160a01b0381168114610e7c57600080fd5b919050565b600060208284031215610e9357600080fd5b610e9c82610e65565b9392505050565b600060208284031215610eb557600080fd5b5035919050565b600080600060608486031215610ed157600080fd5b610eda84610e65565b95602085013595506040909401359392505050565b6001600160a01b03968716815294861660208601529290941660408401526060830152608082019290925260a081019190915260c00190565b634e487b7160e01b600052601160045260246000fd5b8082028115828204841417610b0f57610b0f610f28565b80820180821115610b0f57610b0f610f28565b600060208284031215610f7a57600080fd5b81518015158114610e9c57600080fd5b60005b83811015610fa5578181015183820152602001610f8d565b50506000910152565b60008251610fc0818460208701610f8a565b9190910192915050565b6020815260008251806020840152610fe9816040850160208701610f8a565b601f01601f1916919091016040019291505056fea2646970667358221220408fd667003e2e50ecd306569a6d4dc1e4c3503ab290cc8c1606cdfc8e17fc3e64736f6c63430008110033",
					"opcodes": "PUSH1 0x80 PUSH1 0x40 MSTORE CALLVALUE DUP1 ISZERO PUSH2 0x10 JUMPI PUSH1 0x0 DUP1 REVERT JUMPDEST POP PUSH1 0x0 DUP1 SLOAD PUSH1 0x1 PUSH1 0x1 PUSH1 0xA0 SHL SUB NOT AND CALLER OR SWAP1 SSTORE PUSH1 0x1 DUP1 SLOAD PUSH1 0x1 PUSH1 0x1 PUSH1 0x80 SHL SUB NOT AND SWAP1 SSTORE PUSH2 0x1033 DUP1 PUSH2 0x42 PUSH1 0x0 CODECOPY PUSH1 0x0 RETURN INVALID PUSH1 0x80 PUSH1 0x40 MSTORE PUSH1 0x4 CALLDATASIZE LT PUSH2 0x70 JUMPI PUSH1 0x0 CALLDATALOAD PUSH1 0xE0 SHR DUP1 PUSH4 0x61BC221A GT PUSH2 0x4E JUMPI DUP1 PUSH4 0x61BC221A EQ PUSH2 0xCA JUMPI DUP1 PUSH4 0x8DA5CB5B EQ PUSH2 0x107 JUMPI DUP1 PUSH4 0xD48BFCA7 EQ PUSH2 0x13F JUMPI DUP1 PUSH4 0xE88FDDE1 EQ PUSH2 0x15F JUMPI PUSH1 0x0 DUP1 REVERT JUMPDEST DUP1 PUSH4 0x4562D95 EQ PUSH2 0x75 JUMPI DUP1 PUSH4 0x26839F17 EQ PUSH2 0x97 JUMPI DUP1 PUSH4 0x51CFF8D9 EQ PUSH2 0xAA JUMPI JUMPDEST PUSH1 0x0 DUP1 REVERT JUMPDEST CALLVALUE DUP1 ISZERO PUSH2 0x81 JUMPI PUSH1 0x0 DUP1 REVERT JUMPDEST POP PUSH2 0x95 PUSH2 0x90 CALLDATASIZE PUSH1 0x4 PUSH2 0xE81 JUMP JUMPDEST PUSH2 0x17F JUMP JUMPDEST STOP JUMPDEST PUSH2 0x95 PUSH2 0xA5 CALLDATASIZE PUSH1 0x4 PUSH2 0xEA3 JUMP JUMPDEST PUSH2 0x29B JUMP JUMPDEST CALLVALUE DUP1 ISZERO PUSH2 0xB6 JUMPI PUSH1 0x0 DUP1 REVERT JUMPDEST POP PUSH2 0x95 PUSH2 0xC5 CALLDATASIZE PUSH1 0x4 PUSH2 0xE81 JUMP JUMPDEST PUSH2 0x522 JUMP JUMPDEST CALLVALUE DUP1 ISZERO PUSH2 0xD6 JUMPI PUSH1 0x0 DUP1 REVERT JUMPDEST POP PUSH1 0x1 SLOAD PUSH2 0xEA SWAP1 PUSH1 0x1 PUSH1 0x1 PUSH1 0x80 SHL SUB AND DUP2 JUMP JUMPDEST PUSH1 0x40 MLOAD PUSH1 0x1 PUSH1 0x1 PUSH1 0x80 SHL SUB SWAP1 SWAP2 AND DUP2 MSTORE PUSH1 0x20 ADD JUMPDEST PUSH1 0x40 MLOAD DUP1 SWAP2 SUB SWAP1 RETURN JUMPDEST CALLVALUE DUP1 ISZERO PUSH2 0x113 JUMPI PUSH1 0x0 DUP1 REVERT JUMPDEST POP PUSH1 0x0 SLOAD PUSH2 0x127 SWAP1 PUSH1 0x1 PUSH1 0x1 PUSH1 0xA0 SHL SUB AND DUP2 JUMP JUMPDEST PUSH1 0x40 MLOAD PUSH1 0x1 PUSH1 0x1 PUSH1 0xA0 SHL SUB SWAP1 SWAP2 AND DUP2 MSTORE PUSH1 0x20 ADD PUSH2 0xFE JUMP JUMPDEST CALLVALUE DUP1 ISZERO PUSH2 0x14B JUMPI PUSH1 0x0 DUP1 REVERT JUMPDEST POP PUSH2 0x95 PUSH2 0x15A CALLDATASIZE PUSH1 0x4 PUSH2 0xE81 JUMP JUMPDEST PUSH2 0x720 JUMP JUMPDEST CALLVALUE DUP1 ISZERO PUSH2 0x16B JUMPI PUSH1 0x0 DUP1 REVERT JUMPDEST POP PUSH2 0x95 PUSH2 0x17A CALLDATASIZE PUSH1 0x4 PUSH2 0xEBC JUMP JUMPDEST PUSH2 0x7D4 JUMP JUMPDEST PUSH1 0x1 PUSH1 0x1 PUSH1 0xA0 SHL SUB DUP2 AND PUSH1 0x0 SWAP1 DUP2 MSTORE PUSH1 0x4 PUSH1 0x20 MSTORE PUSH1 0x40 SWAP1 KECCAK256 SLOAD PUSH1 0xFF AND PUSH2 0x1EC JUMPI PUSH1 0x40 MLOAD PUSH3 0x461BCD PUSH1 0xE5 SHL DUP2 MSTORE PUSH1 0x20 PUSH1 0x4 DUP3 ADD MSTORE PUSH1 0x1F PUSH1 0x24 DUP3 ADD MSTORE PUSH32 0x686173206E6F742072656365697074206F7220616C7265616479206472617700 PUSH1 0x44 DUP3 ADD MSTORE PUSH1 0x64 ADD JUMPDEST PUSH1 0x40 MLOAD DUP1 SWAP2 SUB SWAP1 REVERT JUMPDEST PUSH1 0x1 PUSH1 0x1 PUSH1 0xA0 SHL SUB DUP2 DUP2 AND PUSH1 0x0 SWAP1 DUP2 MSTORE PUSH1 0x3 PUSH1 0x20 DUP2 DUP2 MSTORE PUSH1 0x40 SWAP3 DUP4 SWAP1 KECCAK256 DUP4 MLOAD PUSH1 0xA0 DUP2 ADD DUP6 MSTORE DUP2 SLOAD DUP7 AND DUP1 DUP3 MSTORE PUSH1 0x1 DUP4 ADD SLOAD SWAP1 SWAP7 AND DUP2 DUP5 ADD DUP2 SWAP1 MSTORE PUSH1 0x2 DUP4 ADD SLOAD DUP3 DUP8 ADD DUP2 SWAP1 MSTORE SWAP5 DUP4 ADD SLOAD PUSH1 0x60 DUP1 DUP5 ADD DUP3 SWAP1 MSTORE PUSH1 0x4 SWAP1 SWAP5 ADD SLOAD PUSH1 0xFF AND ISZERO ISZERO PUSH1 0x80 DUP1 DUP6 ADD SWAP2 SWAP1 SWAP2 MSTORE DUP8 MLOAD SWAP9 DUP10 MSTORE SWAP5 DUP9 ADD SWAP2 SWAP1 SWAP2 MSTORE SWAP5 DUP7 ADD SWAP4 SWAP1 SWAP4 MSTORE DUP5 ADD SWAP3 SWAP1 SWAP3 MSTORE SWAP2 PUSH32 0x61E77266757765643421177BF69B869DCC2ED16C3EE15AA4ACCAB69B23C4AA1E SWAP2 ADD JUMPDEST PUSH1 0x40 MLOAD DUP1 SWAP2 SUB SWAP1 LOG1 POP POP JUMP JUMPDEST CALLER DUP1 EXTCODESIZE ISZERO PUSH2 0x2EB JUMPI PUSH1 0x40 MLOAD PUSH3 0x461BCD PUSH1 0xE5 SHL DUP2 MSTORE PUSH1 0x20 PUSH1 0x4 DUP3 ADD MSTORE PUSH1 0x1C PUSH1 0x24 DUP3 ADD MSTORE PUSH32 0x6E6F7420737570706F727420636F6E7472616374206164647265737300000000 PUSH1 0x44 DUP3 ADD MSTORE PUSH1 0x64 ADD PUSH2 0x1E3 JUMP JUMPDEST DUP2 PUSH1 0x0 DUP2 GT DUP1 ISZERO PUSH2 0x2FE JUMPI POP PUSH2 0xE42 DUP2 GT ISZERO JUMPDEST PUSH2 0x34A JUMPI PUSH1 0x40 MLOAD PUSH3 0x461BCD PUSH1 0xE5 SHL DUP2 MSTORE PUSH1 0x20 PUSH1 0x4 DUP3 ADD MSTORE PUSH1 0x1E PUSH1 0x24 DUP3 ADD MSTORE PUSH32 0x6C6F636B4461797320697320746F6F206C61726765206F7220736D616C6C0000 PUSH1 0x44 DUP3 ADD MSTORE PUSH1 0x64 ADD PUSH2 0x1E3 JUMP JUMPDEST PUSH1 0x0 CALLVALUE GT PUSH2 0x38E JUMPI PUSH1 0x40 MLOAD PUSH3 0x461BCD PUSH1 0xE5 SHL DUP2 MSTORE PUSH1 0x20 PUSH1 0x4 DUP3 ADD MSTORE PUSH1 0x11 PUSH1 0x24 DUP3 ADD MSTORE PUSH17 0x657468657220616D6F756E74203C3D203 PUSH1 0x7C SHL PUSH1 0x44 DUP3 ADD MSTORE PUSH1 0x64 ADD PUSH2 0x1E3 JUMP JUMPDEST PUSH2 0x396 PUSH2 0xAC9 JUMP JUMPDEST PUSH1 0x0 PUSH2 0x3A1 DUP5 PUSH2 0xAF5 JUMP JUMPDEST PUSH1 0x40 DUP1 MLOAD PUSH1 0xA0 DUP2 ADD DUP3 MSTORE CALLER DUP2 MSTORE PUSH1 0x0 PUSH1 0x20 DUP3 ADD DUP2 SWAP1 MSTORE CALLVALUE SWAP3 DUP3 ADD SWAP3 SWAP1 SWAP3 MSTORE PUSH1 0x60 DUP2 ADD DUP4 SWAP1 MSTORE PUSH1 0x1 PUSH1 0x80 DUP3 ADD DUP2 SWAP1 MSTORE SLOAD SWAP3 SWAP4 POP SWAP2 PUSH2 0x3E8 SWAP1 DUP4 SWAP1 PUSH1 0x1 PUSH1 0x1 PUSH1 0x80 SHL SUB AND PUSH2 0xB15 JUMP JUMPDEST PUSH1 0x1 PUSH1 0x1 PUSH1 0xA0 SHL SUB DUP2 AND PUSH1 0x0 SWAP1 DUP2 MSTORE PUSH1 0x4 PUSH1 0x20 MSTORE PUSH1 0x40 SWAP1 KECCAK256 SLOAD SWAP1 SWAP2 POP PUSH1 0xFF AND ISZERO PUSH2 0x454 JUMPI PUSH1 0x40 MLOAD PUSH3 0x461BCD PUSH1 0xE5 SHL DUP2 MSTORE PUSH1 0x20 PUSH1 0x4 DUP3 ADD MSTORE PUSH1 0x1A PUSH1 0x24 DUP3 ADD MSTORE PUSH32 0x73616D652072656365697074206B657920636F6C6C6973696F6E000000000000 PUSH1 0x44 DUP3 ADD MSTORE PUSH1 0x64 ADD PUSH2 0x1E3 JUMP JUMPDEST PUSH1 0x1 PUSH1 0x1 PUSH1 0xA0 SHL SUB DUP1 DUP3 AND PUSH1 0x0 SWAP1 DUP2 MSTORE PUSH1 0x3 PUSH1 0x20 DUP2 DUP2 MSTORE PUSH1 0x40 DUP1 DUP5 KECCAK256 DUP8 MLOAD DUP2 SLOAD SWAP1 DUP8 AND PUSH1 0x1 PUSH1 0x1 PUSH1 0xA0 SHL SUB NOT SWAP2 DUP3 AND OR DUP3 SSTORE DUP4 DUP10 ADD MLOAD PUSH1 0x1 DUP1 DUP5 ADD DUP1 SLOAD SWAP3 SWAP1 SWAP10 AND SWAP2 SWAP1 SWAP3 AND OR SWAP1 SWAP7 SSTORE DUP2 DUP9 ADD MLOAD PUSH1 0x2 DUP3 ADD SSTORE PUSH1 0x60 DUP9 ADD MLOAD SWAP4 DUP2 ADD SWAP4 SWAP1 SWAP4 SSTORE PUSH1 0x80 DUP8 ADD MLOAD PUSH1 0x4 SWAP4 DUP5 ADD DUP1 SLOAD SWAP2 ISZERO ISZERO PUSH1 0xFF NOT SWAP3 DUP4 AND OR SWAP1 SSTORE SWAP3 SWAP1 SWAP2 MSTORE DUP1 DUP4 KECCAK256 DUP1 SLOAD SWAP1 SWAP3 AND SWAP1 SWAP4 OR SWAP1 SSTORE SWAP1 MLOAD PUSH32 0x76FBC6746F9766EC8A8DC297122A14D120CC5FC43CD3F389031392FD382A236E SWAP2 PUSH2 0x512 SWAP2 DUP5 SWAP2 CALLER SWAP2 CALLVALUE SWAP1 DUP13 SWAP1 DUP11 SWAP1 PUSH2 0xEEF JUMP JUMPDEST PUSH1 0x40 MLOAD DUP1 SWAP2 SUB SWAP1 LOG1 POP POP POP POP POP POP JUMP JUMPDEST PUSH1 0x1 PUSH1 0x1 PUSH1 0xA0 SHL SUB DUP2 AND PUSH1 0x0 SWAP1 DUP2 MSTORE PUSH1 0x4 PUSH1 0x20 MSTORE PUSH1 0x40 SWAP1 KECCAK256 SLOAD PUSH1 0xFF AND PUSH2 0x57D JUMPI PUSH1 0x40 MLOAD PUSH3 0x461BCD PUSH1 0xE5 SHL DUP2 MSTORE PUSH1 0x20 PUSH1 0x4 DUP3 ADD MSTORE PUSH1 0x10 PUSH1 0x24 DUP3 ADD MSTORE PUSH16 0x1B9BC81D985B1A59081C9958D95A5C1D PUSH1 0x82 SHL PUSH1 0x44 DUP3 ADD MSTORE PUSH1 0x64 ADD PUSH2 0x1E3 JUMP JUMPDEST PUSH1 0x1 PUSH1 0x1 PUSH1 0xA0 SHL SUB DUP2 AND PUSH1 0x0 SWAP1 DUP2 MSTORE PUSH1 0x3 PUSH1 0x20 DUP2 SWAP1 MSTORE PUSH1 0x40 SWAP1 SWAP2 KECCAK256 ADD SLOAD TIMESTAMP GT PUSH2 0x5E8 JUMPI PUSH1 0x40 MLOAD PUSH3 0x461BCD PUSH1 0xE5 SHL DUP2 MSTORE PUSH1 0x20 PUSH1 0x4 DUP3 ADD MSTORE PUSH1 0x17 PUSH1 0x24 DUP3 ADD MSTORE PUSH32 0x756E6C6F636B2074696D65206E6F742072656163686564000000000000000000 PUSH1 0x44 DUP3 ADD MSTORE PUSH1 0x64 ADD PUSH2 0x1E3 JUMP JUMPDEST PUSH1 0x1 PUSH1 0x1 PUSH1 0xA0 SHL SUB DUP1 DUP3 AND PUSH1 0x0 SWAP1 DUP2 MSTORE PUSH1 0x4 PUSH1 0x20 DUP2 DUP2 MSTORE PUSH1 0x40 DUP1 DUP5 KECCAK256 DUP1 SLOAD PUSH1 0xFF NOT AND SWAP1 SSTORE PUSH1 0x3 DUP1 DUP4 MSTORE SWAP4 DUP2 SWAP1 KECCAK256 DUP2 MLOAD PUSH1 0xA0 DUP2 ADD DUP4 MSTORE DUP2 SLOAD DUP8 AND DUP2 MSTORE PUSH1 0x1 DUP3 ADD SLOAD SWAP1 SWAP7 AND SWAP3 DUP7 ADD SWAP3 SWAP1 SWAP3 MSTORE PUSH1 0x2 DUP3 ADD SLOAD SWAP1 DUP6 ADD MSTORE SWAP2 DUP3 ADD SLOAD PUSH1 0x60 DUP5 ADD MSTORE ADD SLOAD PUSH1 0xFF AND ISZERO DUP1 ISZERO PUSH1 0x80 DUP4 ADD MSTORE PUSH2 0x698 JUMPI DUP1 MLOAD PUSH1 0x40 DUP1 DUP4 ADD MLOAD SWAP1 MLOAD PUSH1 0x1 PUSH1 0x1 PUSH1 0xA0 SHL SUB SWAP1 SWAP3 AND SWAP2 DUP2 ISZERO PUSH2 0x8FC MUL SWAP2 SWAP1 PUSH1 0x0 DUP2 DUP2 DUP2 DUP6 DUP9 DUP9 CALL SWAP4 POP POP POP POP ISZERO DUP1 ISZERO PUSH2 0x692 JUMPI RETURNDATASIZE PUSH1 0x0 DUP1 RETURNDATACOPY RETURNDATASIZE PUSH1 0x0 REVERT JUMPDEST POP PUSH2 0x6B9 JUMP JUMPDEST DUP1 MLOAD PUSH1 0x40 DUP3 ADD MLOAD PUSH1 0x20 DUP4 ADD MLOAD PUSH2 0x6B9 SWAP3 PUSH1 0x1 PUSH1 0x1 PUSH1 0xA0 SHL SUB SWAP1 SWAP2 AND SWAP2 PUSH2 0xB5D JUMP JUMPDEST DUP1 MLOAD PUSH1 0x20 DUP1 DUP4 ADD MLOAD PUSH1 0x40 DUP1 DUP6 ADD MLOAD DUP2 MLOAD PUSH1 0x1 PUSH1 0x1 PUSH1 0xA0 SHL SUB DUP1 DUP10 AND DUP3 MSTORE SWAP6 DUP7 AND SWAP5 DUP2 ADD SWAP5 SWAP1 SWAP5 MSTORE SWAP4 SWAP1 SWAP2 AND SWAP1 DUP3 ADD MSTORE PUSH1 0x60 DUP2 ADD SWAP2 SWAP1 SWAP2 MSTORE TIMESTAMP PUSH1 0x80 DUP3 ADD MSTORE PUSH32 0xFBDE797D201C681B91056529119E0B02407C7BB96A4A2C75C01FC9667232C8DB SWAP1 PUSH1 0xA0 ADD PUSH2 0x28F JUMP JUMPDEST PUSH1 0x0 SLOAD PUSH1 0x1 PUSH1 0x1 PUSH1 0xA0 SHL SUB AND CALLER EQ PUSH2 0x77A JUMPI PUSH1 0x40 MLOAD PUSH3 0x461BCD PUSH1 0xE5 SHL DUP2 MSTORE PUSH1 0x20 PUSH1 0x4 DUP3 ADD MSTORE PUSH1 0x19 PUSH1 0x24 DUP3 ADD MSTORE PUSH32 0x6F6E6C79206F776E65722063616E2061646420746F6B656E7300000000000000 PUSH1 0x44 DUP3 ADD MSTORE PUSH1 0x64 ADD PUSH2 0x1E3 JUMP JUMPDEST PUSH1 0x1 PUSH1 0x1 PUSH1 0xA0 SHL SUB DUP2 AND PUSH1 0x0 DUP2 DUP2 MSTORE PUSH1 0x2 PUSH1 0x20 SWAP1 DUP2 MSTORE PUSH1 0x40 SWAP2 DUP3 SWAP1 KECCAK256 DUP1 SLOAD PUSH1 0xFF NOT AND PUSH1 0x1 OR SWAP1 SSTORE SWAP1 MLOAD SWAP2 DUP3 MSTORE PUSH32 0xE473C74F34BE27C1464D6624F14A0D7FD4E301CBFA29C3EBA425D378C8A7EBE0 SWAP2 ADD PUSH1 0x40 MLOAD DUP1 SWAP2 SUB SWAP1 LOG1 POP JUMP JUMPDEST PUSH1 0x1 PUSH1 0x1 PUSH1 0xA0 SHL SUB DUP4 AND PUSH1 0x0 SWAP1 DUP2 MSTORE PUSH1 0x2 PUSH1 0x20 MSTORE PUSH1 0x40 SWAP1 KECCAK256 SLOAD DUP4 SWAP1 PUSH1 0xFF AND PUSH2 0x830 JUMPI PUSH1 0x40 MLOAD PUSH3 0x461BCD PUSH1 0xE5 SHL DUP2 MSTORE PUSH1 0x20 PUSH1 0x4 DUP3 ADD MSTORE PUSH1 0xF PUSH1 0x24 DUP3 ADD MSTORE PUSH15 0x3737BA103632B3B0B6103A37B5B2B7 PUSH1 0x89 SHL PUSH1 0x44 DUP3 ADD MSTORE PUSH1 0x64 ADD PUSH2 0x1E3 JUMP JUMPDEST CALLER DUP1 EXTCODESIZE ISZERO PUSH2 0x880 JUMPI PUSH1 0x40 MLOAD PUSH3 0x461BCD PUSH1 0xE5 SHL DUP2 MSTORE PUSH1 0x20 PUSH1 0x4 DUP3 ADD MSTORE PUSH1 0x1C PUSH1 0x24 DUP3 ADD MSTORE PUSH32 0x6E6F7420737570706F727420636F6E7472616374206164647265737300000000 PUSH1 0x44 DUP3 ADD MSTORE PUSH1 0x64 ADD PUSH2 0x1E3 JUMP JUMPDEST DUP3 PUSH1 0x0 DUP2 GT DUP1 ISZERO PUSH2 0x893 JUMPI POP PUSH2 0xE42 DUP2 GT ISZERO JUMPDEST PUSH2 0x8DF JUMPI PUSH1 0x40 MLOAD PUSH3 0x461BCD PUSH1 0xE5 SHL DUP2 MSTORE PUSH1 0x20 PUSH1 0x4 DUP3 ADD MSTORE PUSH1 0x1E PUSH1 0x24 DUP3 ADD MSTORE PUSH32 0x6C6F636B4461797320697320746F6F206C61726765206F7220736D616C6C0000 PUSH1 0x44 DUP3 ADD MSTORE PUSH1 0x64 ADD PUSH2 0x1E3 JUMP JUMPDEST PUSH1 0x0 DUP6 GT PUSH2 0x91D JUMPI PUSH1 0x40 MLOAD PUSH3 0x461BCD PUSH1 0xE5 SHL DUP2 MSTORE PUSH1 0x20 PUSH1 0x4 DUP3 ADD MSTORE PUSH1 0xB PUSH1 0x24 DUP3 ADD MSTORE PUSH11 0x616D6F756E74203C3D203 PUSH1 0xAC SHL PUSH1 0x44 DUP3 ADD MSTORE PUSH1 0x64 ADD PUSH2 0x1E3 JUMP JUMPDEST PUSH2 0x925 PUSH2 0xAC9 JUMP JUMPDEST PUSH1 0x0 PUSH2 0x930 DUP6 PUSH2 0xAF5 JUMP JUMPDEST PUSH1 0x40 DUP1 MLOAD PUSH1 0xA0 DUP2 ADD DUP3 MSTORE CALLER DUP2 MSTORE PUSH1 0x1 PUSH1 0x1 PUSH1 0xA0 SHL SUB DUP11 AND PUSH1 0x20 DUP3 ADD MSTORE SWAP1 DUP2 ADD DUP9 SWAP1 MSTORE PUSH1 0x60 DUP2 ADD DUP3 SWAP1 MSTORE PUSH1 0x0 PUSH1 0x80 DUP3 ADD DUP2 SWAP1 MSTORE PUSH1 0x1 SLOAD SWAP3 SWAP4 POP SWAP1 SWAP2 PUSH2 0x97E SWAP1 DUP4 SWAP1 PUSH1 0x1 PUSH1 0x1 PUSH1 0x80 SHL SUB AND PUSH2 0xB15 JUMP JUMPDEST PUSH1 0x1 PUSH1 0x1 PUSH1 0xA0 SHL SUB DUP2 AND PUSH1 0x0 SWAP1 DUP2 MSTORE PUSH1 0x4 PUSH1 0x20 MSTORE PUSH1 0x40 SWAP1 KECCAK256 SLOAD SWAP1 SWAP2 POP PUSH1 0xFF AND ISZERO PUSH2 0x9EA JUMPI PUSH1 0x40 MLOAD PUSH3 0x461BCD PUSH1 0xE5 SHL DUP2 MSTORE PUSH1 0x20 PUSH1 0x4 DUP3 ADD MSTORE PUSH1 0x1A PUSH1 0x24 DUP3 ADD MSTORE PUSH32 0x73616D652072656365697074206B657920636F6C6C6973696F6E000000000000 PUSH1 0x44 DUP3 ADD MSTORE PUSH1 0x64 ADD PUSH2 0x1E3 JUMP JUMPDEST PUSH1 0x1 PUSH1 0x1 PUSH1 0xA0 SHL SUB DUP1 DUP3 AND PUSH1 0x0 SWAP1 DUP2 MSTORE PUSH1 0x3 PUSH1 0x20 DUP2 DUP2 MSTORE PUSH1 0x40 DUP1 DUP5 KECCAK256 DUP8 MLOAD DUP2 SLOAD SWAP1 DUP8 AND PUSH1 0x1 PUSH1 0x1 PUSH1 0xA0 SHL SUB NOT SWAP2 DUP3 AND OR DUP3 SSTORE DUP4 DUP10 ADD MLOAD PUSH1 0x1 DUP1 DUP5 ADD DUP1 SLOAD SWAP3 DUP11 AND SWAP3 SWAP1 SWAP4 AND SWAP2 SWAP1 SWAP2 OR SWAP1 SWAP2 SSTORE DUP3 DUP10 ADD MLOAD PUSH1 0x2 DUP4 ADD SSTORE PUSH1 0x60 DUP10 ADD MLOAD SWAP5 DUP3 ADD SWAP5 SWAP1 SWAP5 SSTORE PUSH1 0x80 DUP9 ADD MLOAD PUSH1 0x4 SWAP2 DUP3 ADD DUP1 SLOAD SWAP2 ISZERO ISZERO PUSH1 0xFF NOT SWAP3 DUP4 AND OR SWAP1 SSTORE SWAP3 MSTORE SWAP1 SWAP3 KECCAK256 DUP1 SLOAD SWAP1 SWAP3 AND OR SWAP1 SSTORE PUSH2 0xA7D SWAP1 DUP11 AND CALLER ADDRESS DUP12 PUSH2 0xBC5 JUMP JUMPDEST PUSH32 0x76FBC6746F9766EC8A8DC297122A14D120CC5FC43CD3F389031392FD382A236E DUP2 CALLER DUP12 DUP12 DUP12 DUP9 PUSH1 0x40 MLOAD PUSH2 0xAB6 SWAP7 SWAP6 SWAP5 SWAP4 SWAP3 SWAP2 SWAP1 PUSH2 0xEEF JUMP JUMPDEST PUSH1 0x40 MLOAD DUP1 SWAP2 SUB SWAP1 LOG1 POP POP POP POP POP POP POP POP POP JUMP JUMPDEST PUSH1 0x1 DUP1 SLOAD PUSH1 0x1 PUSH1 0x1 PUSH1 0x80 SHL SUB DUP1 DUP3 AND DUP4 ADD AND PUSH16 0xFFFFFFFFFFFFFFFFFFFFFFFFFFFFFFFF NOT SWAP1 SWAP2 AND OR SWAP1 SSTORE JUMP JUMPDEST PUSH1 0x0 TIMESTAMP PUSH2 0xB05 DUP4 PUSH3 0x15180 PUSH2 0xF3E JUMP JUMPDEST PUSH2 0xB0F SWAP2 SWAP1 PUSH2 0xF55 JUMP JUMPDEST SWAP3 SWAP2 POP POP JUMP JUMPDEST DUP2 MLOAD PUSH1 0x0 SWAP1 PUSH2 0xB24 TIMESTAMP DUP5 PUSH2 0xF55 JUMP JUMPDEST PUSH1 0x40 DUP1 MLOAD PUSH1 0x1 PUSH1 0x1 PUSH1 0xA0 SHL SUB SWAP1 SWAP4 AND PUSH1 0x20 DUP5 ADD MSTORE DUP3 ADD MSTORE PUSH1 0x60 ADD PUSH1 0x40 DUP1 MLOAD PUSH1 0x1F NOT DUP2 DUP5 SUB ADD DUP2 MSTORE SWAP2 SWAP1 MSTORE DUP1 MLOAD PUSH1 0x20 SWAP1 SWAP2 ADD KECCAK256 SWAP4 SWAP3 POP POP POP JUMP JUMPDEST PUSH1 0x40 MLOAD PUSH1 0x1 PUSH1 0x1 PUSH1 0xA0 SHL SUB DUP4 AND PUSH1 0x24 DUP3 ADD MSTORE PUSH1 0x44 DUP2 ADD DUP3 SWAP1 MSTORE PUSH2 0xBC0 SWAP1 DUP5 SWAP1 PUSH4 0xA9059CBB PUSH1 0xE0 SHL SWAP1 PUSH1 0x64 ADD JUMPDEST PUSH1 0x40 DUP1 MLOAD PUSH1 0x1F NOT DUP2 DUP5 SUB ADD DUP2 MSTORE SWAP2 SWAP1 MSTORE PUSH1 0x20 DUP2 ADD DUP1 MLOAD PUSH1 0x1 PUSH1 0x1 PUSH1 0xE0 SHL SUB AND PUSH1 0x1 PUSH1 0x1 PUSH1 0xE0 SHL SUB NOT SWAP1 SWAP4 AND SWAP3 SWAP1 SWAP3 OR SWAP1 SWAP2 MSTORE PUSH2 0xC03 JUMP JUMPDEST POP POP POP JUMP JUMPDEST PUSH1 0x40 MLOAD PUSH1 0x1 PUSH1 0x1 PUSH1 0xA0 SHL SUB DUP1 DUP6 AND PUSH1 0x24 DUP4 ADD MSTORE DUP4 AND PUSH1 0x44 DUP3 ADD MSTORE PUSH1 0x64 DUP2 ADD DUP3 SWAP1 MSTORE PUSH2 0xBFD SWAP1 DUP6 SWAP1 PUSH4 0x23B872DD PUSH1 0xE0 SHL SWAP1 PUSH1 0x84 ADD PUSH2 0xB89 JUMP JUMPDEST POP POP POP POP JUMP JUMPDEST PUSH1 0x0 PUSH2 0xC58 DUP3 PUSH1 0x40 MLOAD DUP1 PUSH1 0x40 ADD PUSH1 0x40 MSTORE DUP1 PUSH1 0x20 DUP2 MSTORE PUSH1 0x20 ADD PUSH32 0x5361666545524332303A206C6F772D6C6576656C2063616C6C206661696C6564 DUP2 MSTORE POP DUP6 PUSH1 0x1 PUSH1 0x1 PUSH1 0xA0 SHL SUB AND PUSH2 0xCD5 SWAP1 SWAP3 SWAP2 SWAP1 PUSH4 0xFFFFFFFF AND JUMP JUMPDEST DUP1 MLOAD SWAP1 SWAP2 POP ISZERO PUSH2 0xBC0 JUMPI DUP1 DUP1 PUSH1 0x20 ADD SWAP1 MLOAD DUP2 ADD SWAP1 PUSH2 0xC76 SWAP2 SWAP1 PUSH2 0xF68 JUMP JUMPDEST PUSH2 0xBC0 JUMPI PUSH1 0x40 MLOAD PUSH3 0x461BCD PUSH1 0xE5 SHL DUP2 MSTORE PUSH1 0x20 PUSH1 0x4 DUP3 ADD MSTORE PUSH1 0x2A PUSH1 0x24 DUP3 ADD MSTORE PUSH32 0x5361666545524332303A204552433230206F7065726174696F6E20646964206E PUSH1 0x44 DUP3 ADD MSTORE PUSH10 0x1BDD081CDD58D8D95959 PUSH1 0xB2 SHL PUSH1 0x64 DUP3 ADD MSTORE PUSH1 0x84 ADD PUSH2 0x1E3 JUMP JUMPDEST PUSH1 0x60 PUSH2 0xCE4 DUP5 DUP5 PUSH1 0x0 DUP6 PUSH2 0xCEC JUMP JUMPDEST SWAP5 SWAP4 POP POP POP POP JUMP JUMPDEST PUSH1 0x60 DUP3 SELFBALANCE LT ISZERO PUSH2 0xD4D JUMPI PUSH1 0x40 MLOAD PUSH3 0x461BCD PUSH1 0xE5 SHL DUP2 MSTORE PUSH1 0x20 PUSH1 0x4 DUP3 ADD MSTORE PUSH1 0x26 PUSH1 0x24 DUP3 ADD MSTORE PUSH32 0x416464726573733A20696E73756666696369656E742062616C616E636520666F PUSH1 0x44 DUP3 ADD MSTORE PUSH6 0x1C8818D85B1B PUSH1 0xD2 SHL PUSH1 0x64 DUP3 ADD MSTORE PUSH1 0x84 ADD PUSH2 0x1E3 JUMP JUMPDEST PUSH1 0x0 DUP1 DUP7 PUSH1 0x1 PUSH1 0x1 PUSH1 0xA0 SHL SUB AND DUP6 DUP8 PUSH1 0x40 MLOAD PUSH2 0xD69 SWAP2 SWAP1 PUSH2 0xFAE JUMP JUMPDEST PUSH1 0x0 PUSH1 0x40 MLOAD DUP1 DUP4 SUB DUP2 DUP6 DUP8 GAS CALL SWAP3 POP POP POP RETURNDATASIZE DUP1 PUSH1 0x0 DUP2 EQ PUSH2 0xDA6 JUMPI PUSH1 0x40 MLOAD SWAP2 POP PUSH1 0x1F NOT PUSH1 0x3F RETURNDATASIZE ADD AND DUP3 ADD PUSH1 0x40 MSTORE RETURNDATASIZE DUP3 MSTORE RETURNDATASIZE PUSH1 0x0 PUSH1 0x20 DUP5 ADD RETURNDATACOPY PUSH2 0xDAB JUMP JUMPDEST PUSH1 0x60 SWAP2 POP JUMPDEST POP SWAP2 POP SWAP2 POP PUSH2 0xDBC DUP8 DUP4 DUP4 DUP8 PUSH2 0xDC7 JUMP JUMPDEST SWAP8 SWAP7 POP POP POP POP POP POP POP JUMP JUMPDEST PUSH1 0x60 DUP4 ISZERO PUSH2 0xE36 JUMPI DUP3 MLOAD PUSH1 0x0 SUB PUSH2 0xE2F JUMPI PUSH1 0x1 PUSH1 0x1 PUSH1 0xA0 SHL SUB DUP6 AND EXTCODESIZE PUSH2 0xE2F JUMPI PUSH1 0x40 MLOAD PUSH3 0x461BCD PUSH1 0xE5 SHL DUP2 MSTORE PUSH1 0x20 PUSH1 0x4 DUP3 ADD MSTORE PUSH1 0x1D PUSH1 0x24 DUP3 ADD MSTORE PUSH32 0x416464726573733A2063616C6C20746F206E6F6E2D636F6E7472616374000000 PUSH1 0x44 DUP3 ADD MSTORE PUSH1 0x64 ADD PUSH2 0x1E3 JUMP JUMPDEST POP DUP2 PUSH2 0xCE4 JUMP JUMPDEST PUSH2 0xCE4 DUP4 DUP4 DUP2 MLOAD ISZERO PUSH2 0xE4B JUMPI DUP2 MLOAD DUP1 DUP4 PUSH1 0x20 ADD REVERT JUMPDEST DUP1 PUSH1 0x40 MLOAD PUSH3 0x461BCD PUSH1 0xE5 SHL DUP2 MSTORE PUSH1 0x4 ADD PUSH2 0x1E3 SWAP2 SWAP1 PUSH2 0xFCA JUMP JUMPDEST DUP1 CALLDATALOAD PUSH1 0x1 PUSH1 0x1 PUSH1 0xA0 SHL SUB DUP2 AND DUP2 EQ PUSH2 0xE7C JUMPI PUSH1 0x0 DUP1 REVERT JUMPDEST SWAP2 SWAP1 POP JUMP JUMPDEST PUSH1 0x0 PUSH1 0x20 DUP3 DUP5 SUB SLT ISZERO PUSH2 0xE93 JUMPI PUSH1 0x0 DUP1 REVERT JUMPDEST PUSH2 0xE9C DUP3 PUSH2 0xE65 JUMP JUMPDEST SWAP4 SWAP3 POP POP POP JUMP JUMPDEST PUSH1 0x0 PUSH1 0x20 DUP3 DUP5 SUB SLT ISZERO PUSH2 0xEB5 JUMPI PUSH1 0x0 DUP1 REVERT JUMPDEST POP CALLDATALOAD SWAP2 SWAP1 POP JUMP JUMPDEST PUSH1 0x0 DUP1 PUSH1 0x0 PUSH1 0x60 DUP5 DUP7 SUB SLT ISZERO PUSH2 0xED1 JUMPI PUSH1 0x0 DUP1 REVERT JUMPDEST PUSH2 0xEDA DUP5 PUSH2 0xE65 JUMP JUMPDEST SWAP6 PUSH1 0x20 DUP6 ADD CALLDATALOAD SWAP6 POP PUSH1 0x40 SWAP1 SWAP5 ADD CALLDATALOAD SWAP4 SWAP3 POP POP POP JUMP JUMPDEST PUSH1 0x1 PUSH1 0x1 PUSH1 0xA0 SHL SUB SWAP7 DUP8 AND DUP2 MSTORE SWAP5 DUP7 AND PUSH1 0x20 DUP7 ADD MSTORE SWAP3 SWAP1 SWAP5 AND PUSH1 0x40 DUP5 ADD MSTORE PUSH1 0x60 DUP4 ADD MSTORE PUSH1 0x80 DUP3 ADD SWAP3 SWAP1 SWAP3 MSTORE PUSH1 0xA0 DUP2 ADD SWAP2 SWAP1 SWAP2 MSTORE PUSH1 0xC0 ADD SWAP1 JUMP JUMPDEST PUSH4 0x4E487B71 PUSH1 0xE0 SHL PUSH1 0x0 MSTORE PUSH1 0x11 PUSH1 0x4 MSTORE PUSH1 0x24 PUSH1 0x0 REVERT JUMPDEST DUP1 DUP3 MUL DUP2 ISZERO DUP3 DUP3 DIV DUP5 EQ OR PUSH2 0xB0F JUMPI PUSH2 0xB0F PUSH2 0xF28 JUMP JUMPDEST DUP1 DUP3 ADD DUP1 DUP3 GT ISZERO PUSH2 0xB0F JUMPI PUSH2 0xB0F PUSH2 0xF28 JUMP JUMPDEST PUSH1 0x0 PUSH1 0x20 DUP3 DUP5 SUB SLT ISZERO PUSH2 0xF7A JUMPI PUSH1 0x0 DUP1 REVERT JUMPDEST DUP2 MLOAD DUP1 ISZERO ISZERO DUP2 EQ PUSH2 0xE9C JUMPI PUSH1 0x0 DUP1 REVERT JUMPDEST PUSH1 0x0 JUMPDEST DUP4 DUP2 LT ISZERO PUSH2 0xFA5 JUMPI DUP2 DUP2 ADD MLOAD DUP4 DUP3 ADD MSTORE PUSH1 0x20 ADD PUSH2 0xF8D JUMP JUMPDEST POP POP PUSH1 0x0 SWAP2 ADD MSTORE JUMP JUMPDEST PUSH1 0x0 DUP3 MLOAD PUSH2 0xFC0 DUP2 DUP5 PUSH1 0x20 DUP8 ADD PUSH2 0xF8A JUMP JUMPDEST SWAP2 SWAP1 SWAP2 ADD SWAP3 SWAP2 POP POP JUMP JUMPDEST PUSH1 0x20 DUP2 MSTORE PUSH1 0x0 DUP3 MLOAD DUP1 PUSH1 0x20 DUP5 ADD MSTORE PUSH2 0xFE9 DUP2 PUSH1 0x40 DUP6 ADD PUSH1 0x20 DUP8 ADD PUSH2 0xF8A JUMP JUMPDEST PUSH1 0x1F ADD PUSH1 0x1F NOT AND SWAP2 SWAP1 SWAP2 ADD PUSH1 0x40 ADD SWAP3 SWAP2 POP POP JUMP INVALID LOG2 PUSH5 0x6970667358 0x22 SLT KECCAK256 BLOCKHASH DUP16 0xD6 PUSH8 0x3E2E50ECD30656 SWAP11 PUSH14 0x4DC1E4C3503AB290CC8C1606CDFC DUP15 OR 0xFC RETURNDATACOPY PUSH5 0x736F6C6343 STOP ADDMOD GT STOP CALLER "
				},
				"gasEstimates": {
					"creation": {
						"codeDepositCost": "829400",
						"executionCost": "49329",
						"totalCost": "878729"
					},
					"external": {
						"addToken(address)": "27865",
						"counter()": "2326",
						"depositErc20Token(address,uint256,uint256)": "infinite",
						"depositEther(uint256)": "infinite",
						"getReceipt(address)": "15212",
						"owner()": "2359",
						"withdraw(address)": "infinite"
					},
					"internal": {
						"_computeReceiptKey(struct TimeLockBox.Receipt memory,uint256)": "infinite",
						"_getUnlockTime(uint256)": "infinite",
						"_incrementCounter()": "24269"
					}
				},
				"methodIdentifiers": {
					"addToken(address)": "d48bfca7",
					"counter()": "61bc221a",
					"depositErc20Token(address,uint256,uint256)": "e88fdde1",
					"depositEther(uint256)": "26839f17",
					"getReceipt(address)": "04562d95",
					"owner()": "8da5cb5b",
					"withdraw(address)": "51cff8d9"
				}
			},
			"storageLayout": {
				"storage": [
					{
						"astId": 1770,
						"contract": "bankLockTest.sol:TimeLockBox",
						"label": "owner",
						"offset": 0,
						"slot": "0",
						"type": "t_address"
					},
					{
						"astId": 1772,
						"contract": "bankLockTest.sol:TimeLockBox",
						"label": "counter",
						"offset": 0,
						"slot": "1",
						"type": "t_uint128"
					},
					{
						"astId": 1776,
						"contract": "bankLockTest.sol:TimeLockBox",
						"label": "legalErc20Tokens",
						"offset": 0,
						"slot": "2",
						"type": "t_mapping(t_address,t_bool)"
					},
					{
						"astId": 1781,
						"contract": "bankLockTest.sol:TimeLockBox",
						"label": "receiptRepo",
						"offset": 0,
						"slot": "3",
						"type": "t_mapping(t_address,t_struct(Receipt)1796_storage)"
					},
					{
						"astId": 1785,
						"contract": "bankLockTest.sol:TimeLockBox",
						"label": "hasReceipt",
						"offset": 0,
						"slot": "4",
						"type": "t_mapping(t_address,t_bool)"
					}
				],
				"types": {
					"t_address": {
						"encoding": "inplace",
						"label": "address",
						"numberOfBytes": "20"
					},
					"t_bool": {
						"encoding": "inplace",
						"label": "bool",
						"numberOfBytes": "1"
					},
					"t_mapping(t_address,t_bool)": {
						"encoding": "mapping",
						"key": "t_address",
						"label": "mapping(address => bool)",
						"numberOfBytes": "32",
						"value": "t_bool"
					},
					"t_mapping(t_address,t_struct(Receipt)1796_storage)": {
						"encoding": "mapping",
						"key": "t_address",
						"label": "mapping(address => struct TimeLockBox.Receipt)",
						"numberOfBytes": "32",
						"value": "t_struct(Receipt)1796_storage"
					},
					"t_struct(Receipt)1796_storage": {
						"encoding": "inplace",
						"label": "struct TimeLockBox.Receipt",
						"members": [
							{
								"astId": 1787,
								"contract": "bankLockTest.sol:TimeLockBox",
								"label": "customer",
								"offset": 0,
								"slot": "0",
								"type": "t_address"
							},
							{
								"astId": 1789,
								"contract": "bankLockTest.sol:TimeLockBox",
								"label": "token",
								"offset": 0,
								"slot": "1",
								"type": "t_address"
							},
							{
								"astId": 1791,
								"contract": "bankLockTest.sol:TimeLockBox",
								"label": "amount",
								"offset": 0,
								"slot": "2",
								"type": "t_uint256"
							},
							{
								"astId": 1793,
								"contract": "bankLockTest.sol:TimeLockBox",
								"label": "unlockTime",
								"offset": 0,
								"slot": "3",
								"type": "t_uint256"
							},
							{
								"astId": 1795,
								"contract": "bankLockTest.sol:TimeLockBox",
								"label": "isEther",
								"offset": 0,
								"slot": "4",
								"type": "t_bool"
							}
						],
						"numberOfBytes": "160"
					},
					"t_uint128": {
						"encoding": "inplace",
						"label": "uint128",
						"numberOfBytes": "16"
					},
					"t_uint256": {
						"encoding": "inplace",
						"label": "uint256",
						"numberOfBytes": "32"
					}
				}
			},
			"userdoc": {
				"kind": "user",
				"methods": {},
				"version": 1
			}
		}
	}
}